:020000040800F2
:100000006818002079020008A3310008892E000832
:10001000A1310008651C0008A93600080000000096
:10002000000000000000000000000000A7310008F0
:100030009F1C000800000000A5310008A93100083D
:10004000930200089302000893020008930200083C
:10005000930200089302000893020008930200082C
:10006000930200089302000893020008930200081C
:10007000930200089302000893020008691C00081C
:1000800093020008930200089302000893020008FC
:1000900093020008930200089302000893020008EC
:1000A00093020008930200089302000893020008DC
:1000B00093020008930200089302000893020008CC
:1000C00093020008930200089302000893020008BC
:1000D00093020008193600089302000893020008F2
:1000E000930200089302000893020008930200089C
:1000F000930200089302000893020008930200088C
:10010000930200089302000893020008930200087B
:10011000930200089302000893020008930200086B
:10012000930200089302000893020008930200085B
:1001300000F002F800F090F80AA090E8000C824469
:100140008344AAF10107DA4501D100F085F8AFF246
:10015000090EBAE80F0013F0010F18BFFB1A43F0A5
:10016000010318471438000034380000103A24BF47
:1001700078C878C1FAD8520724BF30C830C144BF0C
:1001800004680C607047000000230024002500264E
:10019000103A28BF78C1FBD8520728BF30C148BFEA
:1001A0000B6070476E2900F08181702900F0C382D6
:1001B000662903F04983652903F04683672903F024
:1001C0004383612903F0428303681B0A28BF41F07F
:1001D0008001692900F02E81642900F02B817529A6
:1001E00000F028816F2900F05182782900F08F8279
:1001F000E92900F0EB81E42900F0E881F52900F01D
:10020000E581EF2900F04E82F82900F08E82036824
:10021000DB0928BF41F08001632900F08F87732933
:1002200000F09487E32900F09F87F32900F0A4876A
:10023000002070471FB500F0F1FF040000200021EE
:1002400003F0ECFA401C60600020002103F0D0FABB
:10025000E0601FBD10B510BD00F0B2FF1146FFF702
:10026000E9FF03F04DFA01F08BF803B4FFF7F2FF5A
:1002700003BC01F0CFF80000094880470948004757
:10028000FEE7FEE7FEE7FEE7FEE7FEE7FEE7FEE746
:10029000FEE7FEE704480549054A064B70470000A3
:1002A0000B32000831010008681200206818002095
:1002B00068140020681400201CB50C46064B7B44D3
:1002C00069460090204600F00AF90446002069467D
:1002D00000F018F920461CBD4302000010B5431C75
:1002E00002E010F8011B71B18107FAD14FF0013221
:1002F00002C88C1A8C4314EAC211F9D0C01A0A063B
:1003000003D0C01E10BDC01A10BD0A0401D0801E4B
:1003100010BD0902FCD0401E10BD4FF0000200B518
:10032000134694469646203922BFA0E80C50A0E818
:100330000C50B1F12001BFF4F7AF090728BFA0E8C6
:100340000C5048BF0CC05DF804EB890028BF40F892
:10035000042B08BF704748BF20F8022B11F0804FD4
:1003600018BF00F8012B704770477047704770B591
:10037000044685690068C10601D5302600E02026C4
:10038000C00707D070BDD4E9012130469047206AEC
:10039000401C20626D1EF6D570BD70B5044685699F
:1003A0000078C00707D170BDD4E901212020904713
:1003B000206A401C20626D1EF6D570BD09684A0592
:1003C00001D540B27047C905FCD500B27047096835
:1003D0004A0501D5C0B27047C905FCD580B2704747
:1003E00070B50C460546012A05D02878800600D550
:1003F000EA69002302E0012305E05B1C934202D27C
:10040000E05C0028F9D1A869E618C01AA861286A3A
:10041000184428622846FFF7AAFF04E0D5E9012125
:1004200014F8010B9047B442F8D32846FFF7B5FF04
:1004300070BD00002DE9F0410646002410687529C2
:10044000314616A510D0FFF7B9FF002802DA404266
:1004500013A507E031688A0701D512A502E0490714
:1004600004D511A5012401E0FFF7B1FF00210A2204
:1004700006F1240709E0B0FBF2FCB0FBF2F302FB4B
:100480001C00303078541846491C0028F3D123460C
:100490002A463046BDE8F04100F061BA0000000095
:1004A0002D0000002B0000002000000011680268F1
:1004B000006A530501D508700AE0D30501D508800C
:1004C00006E0130603D5C217C1E9000200E0086088
:1004D0000120704701694A1C02610878704700B525
:1004E0008FB0CDE901310021059105497944CDE96D
:1004F00003101146684600F029F90FB000BD000056
:10050000E5FFFFFF0A6802F8010B0A607047000070
:100510002DE9FF5F15468A460446DFF8AC80F844B3
:100520000027D8E900103E46CDE9001010E03AF867
:1005300016106A4602A800F023FE411C07D021785D
:10054000890603D5E269391891420DD80744761C13
:100550002078800602D5E069B84205DDAE42E6DBD0
:100560003AF816000028E2D1A069C01BA06120461D
:10057000FFF7FDFED8E90010CDE90010002017E0DC
:100580003AF818106A4602A800F0FAFDB0F1FF3FF1
:1005900081460BD000250DF1080B05E0D4E90121BF
:1005A0001BF8050090476D1C4D45F7D308F101007D
:1005B000B0428046E4DB206A384420622046FFF7E0
:1005C000ECFEBDE8FF9F00005A3300002DE9F0412A
:1005D0008046D21D22F007020025D2E90002F5294B
:1005E00015A614D0011E72F1000106DA0023D0EB2B
:1005F000030063EB020211A608E0D8F800108B0795
:1006000001D50FA602E0490701D50EA60125114626
:10061000002408F1240704E000F05CF930323A5578
:10062000641C50EA0102F7D12B463246214640466F
:10063000BDE8F04100F093B9000000002D0000007B
:100640002B0000002000000030B4002100F1240441
:1006500008E002F00705D208303542EA4372DB08B1
:100660006554491C52EA0305F3D10468002310A223
:10067000250708D504F020040C4304D0C4690123E5
:100680000CA2641EC46130BC00F069B910B5044608
:1006900021461068FFF79BFE02462046BDE8104049
:1006A0000023D1E7D21D22F00701D1E90023CBE7D7
:1006B0000000000030000000F0B40D46018809057C
:1006C00002D5214C7C4402E01F4C7C440E340021B6
:1006D00000F1240608E002F00F071209E75D42EA84
:1006E00003721B097754491C52EA0307F3D10278BD
:1006F0000023120704D5702D06D009B1022311344E
:100700002246F0BC00F02BB901231034F8E770B595
:1007100004460D4621461068FFF759FE0246294659
:100720002046BDE870400023C6E7D21D22F0070333
:10073000D3E90023C0E70368126843F02003036095
:100740000823C3610023B7E7BC3100002DE9F05F47
:10075000894604464FF0000ADFF874B1FB44C0F844
:1007600020A02046E1688847002874D0252806D0BC
:10077000D4E901219047206A401C2062F1E700265D
:100780005F462046E16888472028054607DB312D73
:1007900005D2781910F8200C08B10643F1E7B0072C
:1007A00001D526F00406C4F81CA00027C4F818A040
:1007B0002A2D09D0284602F09CFF38B304EB8708A5
:1007C000303DC8F8185019E059F8041B204604EBD6
:1007D00087029161E1688847012F054618D1E069D9
:1007E000002820DA26F020061DE0D8F8180000EBDB
:1007F000800005EB40003038C8F818002046E1685A
:100800008847054602F075FF0028EED1012F0AD077
:100810002E2D08D12046E16888477F1C0546022F0F
:1008200046F02006C4DBA069002803DA404246F007
:100830000106A061F00701D026F010066C2D0BD048
:10084000682D09D04C2D39D06A2D35D0742D35D076
:100850007A2D33D016E038E0E1682F4620468847ED
:10086000B842054609D16C2F26D04FF48060E1686C
:10087000064320468847054604E06C2F1AD04FF403
:10088000807006430DB3A5F14100192802D8203528
:1008900046F400664A462946204626604E46FFF743
:1008A00081FC80B101280BD0F61D26F0070000F175
:1008B000080956E74020E4E78020D8E70020D6E783
:1008C00006F104094DE7284652E7206ABDE8F09F8B
:1008D0004C31000030B5B0F10A024FEA900E71F1D0
:1008E00000034EEA817EB0EB0E0061EB91014FEA0E
:1008F000101E4EEA017E10EB0E0041EB11114FEA83
:10090000102E4EEA016E10EB0E0041EB11214FEA62
:10091000104E4EEA014E10EB0E0041EB1141401813
:1009200041F100014FEAD00040EA41704FEAD101A5
:1009300010EB80054FEA810444EA907444EB010413
:100940006D1944EB0404521BA3414FF0000348BF50
:100950000A3200D530BD401C41F1000130BD2DE907
:10096000F0470D4699469246044600F12408016876
:10097000880604D5E06921F01001216000E0012023
:10098000A84201DD471B00E00027A1697A1902EBAC
:100990000900081AA0612078C00602D42046FFF79B
:1009A000E6FC002608E0D4E901211AF80600904789
:1009B000206A401C761C20624E45F4DB2078C0067D
:1009C0000AD52046FFF7D3FC06E0D4E90121302008
:1009D0009047206A401C2062381EA7F10107F4DC12
:1009E00007E0D4E9012118F805009047206A401C6F
:1009F0002062281EA5F10105F3DC2046FFF7CDFC9F
:100A00002078000602D50220BDE8F0870120FBE730
:100A100070472DE9FF4F0C461E464FF0FF378BB055
:100A2000D2E90001DDF860800A908A46C1F30A55D8
:100A300005B93D46002108464FF00000BAF1000F0D
:100A400000F4400005DA00EB80004FF4400101EAB9
:100A500050004FEA9059B9F1010F00DDB9460A98EC
:100A600050EA4A000ED044F61050A5F2FF35454337
:100A70002F14B8F1000F1ED07542291E1EDDC9F1DA
:100A800000021CE0B8F1010F4FF0000001D030214E
:100A900003E0F24305E02154401CB042FBDB30464A
:100AA0000022002121540B99C1F80880C1E90020DF
:100AB0000FB0BDE8F08FBD1B6D1CDEE74A4600DAC3
:100AC000694206A800F0EEFB06AB93E8070003AB13
:100AD00083E8070050460A9900F0A3FC8DE8070060
:100AE000A0F500501F3800900398002D09DD42F258
:100AF0001F014A46084403A90390684600F002FF1C
:100B000008E0A0F500504A461F3803A90390684644
:100B100000F00CFF8DE807000004000C03D04FF03C
:100B2000FF30410800E01046B8F1000F03D000226A
:100B3000009215461EE0751E05D4FFF7CBFE30323D
:100B400062556D1EF9D5B3460122084302D000223A
:100B50007F1C04E02078302801D100227F1E002A6B
:100B6000099786D01DE0112D07DAFFF7B3FE30326A
:100B700062556D1C50EA0102F5D1084302D000987D
:100B8000C8B10EE00021681E05E0235C625C63547E
:100B90002254401E491C8142F7DBAB46A81B401E75
:100BA0000990002004F80B000B98099AC0F80880FF
:100BB000C0E9002B7CE711264FF0000859E72DE92A
:100BC000F04F88460446D21D22F0070191B0D1E9CA
:100BD0000001CDE90A0102F068FD02460B98C00F42
:100BE00001D02D2007E02068810701D52B2002E0ED
:100BF000202101EAC000032A099001D0072A05DB61
:100C000003464146204600F00DFB0BE120788006AC
:100C100001D5E06900E00620B8F1650F814606D0F5
:100C2000B8F1660F18D0B8F1670F70D131E000202D
:100C3000B9F1110F009001DB112301E009F101036B
:100C40000AAA01A90CA8FFF7E4FEDDE90C70002652
:100C500009F10105834647E001204B4600904FF023
:100C600000470AAA01A90CA8FFF7D3FEDDE90DB0E1
:100C70000C995D46002610B909F101000D18B9EB79
:100C8000050003D4C0F1FF3609F10105A5EB090009
:100C90002BE0B9F1010F01DA4FF001090020B9F1A1
:100CA000110F0090484601DD112300E003460AAA17
:100CB00001A90CA8FFF7ADFEDDE90C704D4600263A
:100CC0008346207800070AD4AB4500DA5D4601A8C8
:100CD000012D04DD411911F8011C302907D04F45C1
:100CE00002DA17F1040F04DA012082460FE06D1ECC
:100CF000EEE7002F02DCED1B3E4403E0781CA84227
:100D000000DD7D1CB81B00F1010A4FF00047207880
:100D1000000703D4AA4501DB4FF0FF3A0021B7F1E9
:100D2000004F0DF143088DF8431024D002202B23EF
:100D3000002F01DA7F422D230A21021EA0F10100BB
:100D400000DC5FB197FBF1FC97FBF1F201FB1C7C2F
:100D500017460CF1300C08F801CDEEE7A8F10100C0
:100D600003702188090501D5452100E06521A0F126
:100D7000010800F8011C09980FA9A1EB0807FF1D45
:100D800000B10120411901EBEA70A1693844081A49
:100D9000401EA0612078C00602D42046FFF7E7FA83
:100DA000099828B1D4E901219047206A401C2062AB
:100DB0002078C00622D52046FFF7D9FA1EE0002E83
:100DC00004DBB34502DD01A8805D00E03020D4E9FA
:100DD00001219047206A401C2062761CAAF1010084
:100DE0005FEA000A0AD100F019FAC0680168405CA5
:100DF000D4E901219047206A401C2062281EA5F1F9
:100E00000105DCDC07E0D4E9012118F8010B90476B
:100E1000206A401C2062381EA7F10107F3DC20463F
:100E2000FFF7BBFA032011B043E600002DE9F04FB5
:100E300004460D46D21D22F0070089B0D0E9009289
:100E400048461746394602F030FC0246F80F01D0FA
:100E50002D2307E02068810701D52B2302E0202104
:100E600001EAC0038DF820300BB1012000E0002022
:100E7000032A824601D0072A04DB2946204600F0D7
:100E8000D1F93DE12078800601D40D2500E0E56927
:100E9000C7F30A560D2D49DA00214FEA175B0846C1
:100EA0004FF00000002F00F4400007DA00EB800054
:100EB0004FF4400100EBD07001EA60008115012978
:100EC00001DD4FF0FF3100224FEA850CBCF1180F15
:100ED00006D31346ACF118004FF08052C24003E035
:100EE0004FF4801323FA0CF30CF10C0CBCF1200F1F
:100EF00004D3ACF1200C09FA0CF001E007FA0CF075
:100F000000294FF0004801DD18B90FE00ED140452F
:100F10000CD319EB02095F4121B9404502D19F432F
:100F200029EA0209BBEB175F00D0761C2088000578
:100F300002D57B48784402E079487844193808AAF9
:100F4000302302F80A30037C0AF10101002E0AF175
:100F5000020A53546A4602DC4FF0300101E04FF0C0
:100F600031014FF001088DF8001002D0A6F2FF36D3
:100F700003E059EA470100D06A4E002D02DC2178D7
:100F8000090704D54FF002082E218DF80110C44640
:100F900000210BE0C7F303433F01C35C491C6D1EF6
:100FA00002F80830052908F1010801DA002DF1DC0A
:100FB00000210CE000EB1973491C1B786D1E0829F9
:100FC00002F808304FEA091908F1010801DA002D8A
:100FD000F0DC2178890602D514E0A8F10108E0458B
:100FE00005DD02EB080111F8011C3029F5D0B8F13C
:100FF000000F07DD02EB080111F8011C2E2901D1B9
:10100000A8F10108002D05DD3E2102F808106D1E33
:1010100008F10108407C002E02F8080008F10108E0
:1010200004DA2D20764202F8080002E02B2002F8B4
:1010300008000A214FF47A70864208F101080BDBA0
:1010400096FBF0F3303302F8083096FBF0F308F12A
:10105000010800FB136601E0642E0CDB642096FBA4
:10106000F0F3303302F8083096FBF0F308F1010892
:1010700000FB136601E00A2E06DB96FBF1F0303030
:1010800002F8080008F1010896FBF1F001FB10607E
:10109000303002F80800A16908F1010808EB0502E8
:1010A00002EB0A00081AA0612078C00602D420468C
:1010B000FFF75DF9216A08AE01EB0A00206204E047
:1010C000D4E9012116F8010B9047BAF1010AF7D2D1
:1010D0002078C00602D52046FFF749F96E4609E0A0
:1010E00016F8010B3E280FD0D4E901219047206A61
:1010F000401C2062B8F10108F2D22046FFF74DF9FA
:1011000009B00320BDE8F08F206A2844206203E084
:10111000D4E90121302090476D1EEBD3F8E70000A1
:101120009829000002FCFFFF10B5436913B1AFF32B
:10113000008001E0FFF754F9012010BD127800F1A2
:1011400024010A7000224A700122EDE711684FF075
:10115000FF32E9E710B5436913B1AFF3008001E056
:10116000FFF7D6F9012010BD128800F12401828416
:101170000022C2840122EDE711684FF0FF32E9E757
:1011800070B516460C46054600F040F8036893F823
:101190000101012806D0FF2C0FD8185D68B101208D
:1011A0002C7070BDD3F807013246214603F20713B5
:1011B00003442846BDE8704018474FF0FF3070BD2B
:1011C000754600F0E3F8AE4605006946534620F048
:1011D0000700854618B020B5FFF75CF8BDE8204051
:1011E0004FF000064FF000074FF000084FF0000BE3
:1011F00021F00701AC46ACE8C009ACE8C009ACE896
:10120000C009ACE8C0098D467047000010B500F079
:1012100005F8001D10BD00BF0526000000487047FE
:10122000241200202DE9F0411F46044603260168E0
:10123000072A01F4006004DB08B116A505E016A535
:1012400003E008B115A500E015A521F0100020600D
:10125000A069C01EA0610FB1401EA0612046FFF72B
:1012600086F84FB1D4E9012138469047206A401CE6
:101270002062C01C206206E0206AFAE7D4E901215E
:1012800015F8010B9047761EF8D22046FFF785F837
:10129000BDE8F0814E414E006E616E00494E460041
:1012A000696E66002DE9F047814616468AB03348DC
:1012B00078440DC88DE80D0030487844801C03AC9C
:1012C0000DC884E80D0041F69B300844372190FB9F
:1012D000F1F290FBF1F5A5F1800501FB12041B3C36
:1012E00002D56442012000E00020DFF890A0804693
:1012F0000027FA44AAF1BE0A0DE0E00709D0324601
:10130000684607EB47010AEB810100F00FFB8DE80F
:10131000070064107F1C002CEFD1184F7F44AC3FB6
:1013200018E0E80714D007EB04100DF1180A90E854
:101330000E008AE80E00C068F04201D198190890AA
:10134000324606A903A800F0F1FA03AB83E80700D0
:101350006D10641C002DE4D132466946B8F1000FCF
:1013600003A802D000F0CEFA01E000F0DFFAC9E9EC
:101370000001C9F808200AB0BDE8F087AC260000DB
:101380000446AFF300802046FEF76FFF0048704729
:10139000041200204FF0013C50F8042B51F8043B9C
:1013A0009A4221D1A2EB0C03934313EACC1317D139
:1013B00050F8042B51F8043B9A4215D1A2EB0C03D0
:1013C000934313EACC130BD150F8042B51F8043B90
:1013D0009A4209D1A2EB0C03934313EACC13DBD05E
:1013E0004FF00000704700BFD01A01BAB1FA81F186
:1013F00001F0180122FA01F0CB40C1F12001DBB26B
:10140000C0B2C01A2CFA01F3D11A914311EAC311E8
:10141000E6D1704701491820ABBEFEE72600020066
:1014200070475FEA400C08BF91F0000F4FEA8C2331
:101430004FEAC12243EA51514FEA1C5018BF00F550
:10144000F0404FEA300018BF41F000415FEA6C5CA9
:1014500000F02980BCF1FF3F08BF40F0804070479A
:10146000130C06BF12044FF0100C4FF0000C130EBB
:1014700004BF12020CF1080C130F04BF12010CF18F
:10148000040C930F04BF92000CF1020CD30F04BFA5
:1014900052000CF1010C11464FF00002A0F11F00A8
:1014A000A0EB0C00704711F0004F08BF704731F0FF
:1014B00000413FF4D5AF0B0C06BF09044FF0100CF0
:1014C0004FF0000C0B0E04BF09020CF1080C0B0FBF
:1014D00004BF09010CF1040C8B0F04BF89000CF14F
:1014E000020CCB0F04BF49000CF1010CCCF120031E
:1014F000A0EB0C0022FA03F302FA0CF241EA03011A
:1015000000F10100704720F07F4C80EA030023F0D7
:101510007F47ACEB070303F57C5300F0004003F179
:10152000FF032DE980494FEA154B09B44FEA1443F4
:1015300025EA0B4E24EA03480FF2042606EB132794
:1015400049083E785FEA320203FB0667C7F50007E9
:1015500007FB06F64FEA54374FEAD64606F1020675
:1015600007FB066CCCF1005C4FEA1C472CEA074CE9
:1015700007FB06F40CFB06F504EB15464FEA96163E
:1015800034BF00204FF000404FEAD13706FB07FC84
:101590004FEA1C4C0CFB0BF7D21B03FB0CF761EB67
:1015A00007010CFB0EF7B0EB074072EB17420CFB88
:1015B00008F734BFA2EB0742B2EB074261EB1741D9
:1015C0004FEA0C444FEA910706FB07FC4FEA1C4C1C
:1015D0000CFB0BF7B0EBC74072EB573203FB0CF779
:1015E00034BFA2EBC742B2EBC74261EB57310CFBF1
:1015F0000EF7B0EBC70072EB57720CFB08F734BF65
:10160000A2EBC702B2EBC70261EB5771039F4FEA2F
:10161000816141EA921104EBCC044FEAD1374FEAE1
:10162000826206FB07FC42EA90124FEA80604FEAB2
:101630001C4C0CFB0BF7D21B03FB0CF761EB0701F7
:101640000CFB0EF7B0EB074072EB17420CFB08F7F0
:1016500034BFA2EB0742B2EB074261EB17414FEAFE
:101660008C554FEA910704EB9C2406FB07FC4FEADC
:101670001C4C0CFB0BF7B0EBC74072EB573203FB73
:101680000CF734BFA2EBC742B2EBC74261EB573154
:101690000CFB0EF7B0EBC70072EB57720CFB08F7B0
:1016A00034BFA2EBC702B2EBC70261EB577115EB77
:1016B0004C254FEA816141EA92114FEA82624FEA7A
:1016C000D13742EA901206FB07FC44F100044FEACE
:1016D00080604FEA1C4C0CFB0BF7D21B03FB0CF792
:1016E00061EB07010CFB0EF7B0EB074072EB174202
:1016F0000CFB08F734BFA2EB0742B2EB074261EBE9
:10170000174115EB1C154FEA813141EA92414FEA2E
:10171000823242EA90424FEA80304FEA0C7644F13E
:10172000000448EA03434EEA0B484FF0000EB2EBC8
:10173000080C71EB030724BF624639464EEB0E0ED0
:101740004FF0000B0018524149414BEB0B0BB2EB31
:10175000080C71EB03077BF1000B24BF624639468E
:101760004EEB0E0E4FF0000B0018524149414BEB6F
:101770000B0BB2EB080C71EB03077BF1000B24BFE2
:10178000624639464EEB0E0E51EA020718BF46F08C
:10179000010616EB0E7655F1000254F1000103D557
:1017A000BDE88901BDE80088BDE88901BDE80048C1
:1017B000B619524141EB0101A3F10103704780804A
:1017C0007F7E7D7C7B7A797877767675747372719B
:1017D00071706F6E6E6D6C6C6B6A6A696868676653
:1017E00066656464636362616160605F5F5E5E5DE5
:1017F0005D5C5C5B5B5A5A59595858575756565559
:1018000055555454535352525251515050504F4FBA
:101810004F4E4E4D4D4D4C4C4C4B4B4B4A4A4A490A
:10182000494948484847474747464646454545444D
:101830004444444343434342424242414141002BDA
:1018400026D4770021D01CB54FEA370703B44FF0F8
:1018500010004FF010014FF000000FBCBDE8104029
:101860000BF1010BBBF1010F08BF5FEA170722BFA5
:1018700012F1010211F101014FF0004143F10003A7
:1018800000F0004043EA00007047F9D35708DAE758
:1018900046EA064613F1400F4FEA16461FDD13F1E4
:1018A000200FDFBF16430A46002120335B42C8D019
:1018B000C3F1200746EA064602FA07F74FEA164642
:1018C00046EA0706C3F1200722FA03F201FA07F7F6
:1018D00021FA03F14FF0000342EA0702B1E746EABA
:1018E000020646EA06464FEA164646EA0106BCBF2D
:1018F00046EA0646360C4FF000034FF000024FF068
:1019000000019EE72DE9C048934630B491E83800C5
:1019100007C831EA400C48BF34EA430C03D5FFF74F
:10192000F2FDFFF78CFFF0BCBDE800882DE9C04850
:10193000934630B491E8380007C810F0804F08BFD4
:1019400013F0804F03D100F005F8FFF778FFF0BCEB
:10195000BDE8008820F07F4780EA030023F07F4C39
:1019600007EB0C03A3F57C5300F00040A3F1FE034A
:1019700092F0000F00F0B38095F0000F00F0778038
:101980002DE901494FEA11404FEA144621EA004887
:1019900000FB06FC24EA064708FB06F607FB08F8EE
:1019A00000FB07F718EB06484CEB164C4FEA124BBE
:1019B00018EB07484FEA15464CEB174022EA0B4E4E
:1019C0000BFB06FC25EA06470EFB06F607FB0EFEA0
:1019D0000BFB07F71EEB064E4CEB164C4FF00006C8
:1019E0001EEB074E4CEB174B18EB0B0840F10000B9
:1019F00018EB0E0B58EB000840F100008F1A4FF067
:101A000000013CBFC943661B14BFB5EB040C0021A9
:101A10003CBFC943F61B4FEA17444EEA8E0E27EA35
:101A200004454FEA1C4704FB07622CEA074C05FB00
:101A300007F70CFB05F604FB0CFC16EB074642EB24
:101A4000174216EB0C4642EB1C421BEB060658EB0A
:101A50000202414146EA9E0601D5BDE80189B61958
:101A6000524141EB0101A3F10103BDE801894FEAB5
:101A700014454FEA114724EA054621EA074C05FBC5
:101A800007F406FB07F70CFB06F105FB0CFC11EB5A
:101A9000074144EB17444FEA124711EB0C4144EB6A
:101AA0001C4422EA074C05FB07F206FB07F70CFB78
:101AB00006F605FB0CFC16EB074642EB174216EB4D
:101AC0000C4642EB1C456A1854F1000148BF7047B0
:101AD000B619524141EB0101A3F10103704795F0A2
:101AE000000F37D04FEA11424FEA144721EA02466D
:101AF00024EA074C02FB07F106FB07F70CFB06F490
:101B000002FB0CFC14EB074441EB17414FEA15476D
:101B100014EB0C4441EB1C4125EA074C02FB07F592
:101B200006FB07F70CFB06F602FB0CFC16EB074660
:101B300045EB174516EB0C4645EB1C42121951F1CB
:101B4000000148BF7047B619524141EB0101A3F1B2
:101B5000010370474FEA14454FEA114724EA05464E
:101B600021EA074C05FB07F106FB07F70CFB06F221
:101B70004FF0000605FB0CFC12EB074241EB17414E
:101B800012EB0C4251EB1C4148BF7047921841EBDD
:101B90000101A3F10103704770B50C46054601F041
:101BA00041FAA02001F008FA642001F07BFA08B1A4
:101BB000012070BD284601F0FFF9642001F072FA9F
:101BC00008B1022070BD01F02DFAA12001F0F4F956
:101BD000642001F067FA08B1032070BD002001F015
:101BE00087F9207001F040FA002070BD70B51446EE
:101BF0000D46064608E03046711CCEB22946FFF776
:101C0000CBFF641EA4B26D1C002CF4D1002070BD6B
:101C100070B50D46044601F005FAA02001F0CCF99C
:101C2000642001F03FFA08B1012070BD204601F0A8
:101C3000C3F9642001F036FA08B1022070BD002417
:101C4000285D01F0B9F9642001F02CFA10B1E41C10
:101C5000E0B270BD641CE4B2082CF1D301F004FAC8
:101C6000002070BDFEE70000014800F0F7B800005A
:101C7000C011002030B590F840500124AC40C56B35
:101C80006C60046863604368102B036803D099603C
:101C90000068C26030BD9A600068C16030BD7047A6
:101CA00000B502464FF47A7302E0184600F004F8DB
:101CB000521E92B2F9D200BD00EBC000C1004FF03D
:101CC000E020416100218161016941F00101016170
:101CD0000169C903FCD5016921F001010161704767
:101CE00072B6FEE710B590F821100022022905D047
:101CF0000421816380F82020012010BD01680B6859
:101D000023F00E030B6001680B6823F001030B60E6
:101D100090F84030C46B012101FA03F3636080F84E
:101D2000211080F82020104610BD00002DE9F05F42
:101D300090F821100024022903D00421816301249A
:101D400085E001680A6822F00E020A6001680A68EC
:101D500022F001020A603F4E3E4FB215DFF8F4C098
:101D6000DFF8F090DFF8ECA0DFF8E8B0DFF8E4E0AF
:101D70000168783F13011502ACF1640CA9F1500918
:101D8000AAF13C0AABF1280BAEF1140E4FF4801807
:101D9000B14227D9B9420ED0614512D049451DD074
:101DA000514518D0594518D0714501D1424615E02A
:101DB000294EB14201D1012210E0274E1436B14222
:101DC00001D110220AE0244E2836B14206D0224A20
:101DD0003C32914201D11A4600E02A461E49091FB1
:101DE0000A602BE0B94213D0614517D0494522D093
:101DF00051451DD059451DD0714501D142461AE0CB
:101E0000B14202D14FF0807215E0134EB14201D1C0
:101E1000012210E0104E1436B14201D110220AE026
:101E20000D4E2836B14206D00B4A3C32914201D1C8
:101E30001A4600E02A46074980394A60012180F8A5
:101E40002110002180F82010416B01B18847204605
:101E5000BDE8F09F80000240080402402DE9F05FD9
:101E6000C16B0A6801680B68046C4FF0040808FA3B
:101E700004F8844D844E854FDFF814C2DFF81492C5
:101E8000DFF814A2DFF814B2DFF814E218EA020F48
:101E900065D05FEA437862D50A68920603D40A687F
:101EA00022F004020A60DFF8F0814FF480620168DA
:101EB00008F1140813011402414524D9A9420DD098
:101EC000B1420FD0B9421AD0614515D0494515D05D
:101ED000514501D1120312E0594501D104220EE00F
:101EE000714501D140220AE06D4D1435A94206D05A
:101EF0006B4A2832914201D11A4600E022466749D6
:101F0000091F0A6029E0A94213D0B14215D0B94295
:101F100020D061451BD049451BD0514502D14FF41B
:101F2000800217E0414502D14FF0806212E059452E
:101F300001D104220EE0714501D140220AE0584D42
:101F40001435A94206D0564A2832914201D11A4688
:101F500000E022464B4908394A60C16A71E04FF0FF
:101F6000020808FA04F818EA020F70D05FEA8378D2
:101F70006DD50A68920606D40A6822F00A020A6041
:101F8000012180F82110DFF810814FF40072016800
:101F900008F1140813011402414524D9A9420DD0B7
:101FA000B1420FD0B9421AD0614515D0494515D07C
:101FB000514501D1120312E0594501D102220EE030
:101FC000714501D120220AE0354D1435A94206D0D1
:101FD000334A2832914201D11A4600E022462F4965
:101FE000091F0A6029E0A94213D0B14215D0B942B5
:101FF00020D061451BD049451BD0514502D14FF43B
:10200000001217E0414502D14FF0007212E059452D
:1020100001D102220EE0714501D120220AE0204DBB
:102020001435A94206D01E4A2832914201D11A46DF
:1020300000E02246134908394A60002180F8201048
:10204000816A00291CD0BDE8F05F0847FFE708253A
:10205000A540154214D01A0712D50A6822F00E02C4
:102060000A6090F84020C36B012101FA02F25A6025
:10207000816380F82110002180F82010016BE0E7D7
:10208000BDE8F09F080002401C0002403000024002
:1020900044000240580002406C0002400804024024
:1020A0001C04024030B560B11A4B026814219A42F8
:1020B00009D2194B1344B3FBF1F1890001641749AC
:1020C0000AE0012030BD134B5B421344B3FBF1F136
:1020D000890001640F490839C163022180F8211089
:1020E000136843F6F0718B43F0E901142143D0E902
:1020F00002452C43214304692143446921438469F7
:102100002143194311600021416301224277017785
:10211000084630BD08040240F8FFFDBF0000024041
:1021200070B5044690F82000002501280CD001204D
:1021300084F8200094F821600020012E06D084F855
:1021400020000225284670BD022070BD022684F8BA
:102150002160A0632068066826F00106066020461C
:10216000FFF788FDE06A00282068016802D041F08E
:102170000E0106E021F0040101602068016841F0D1
:102180000A0101602068016841F001010160D9E79E
:102190002DE9F84FDFF8C8910024A9F1040B23467C
:1021A0000F2709F1040AABF1040ED1E00125A54087
:1021B00006EA0502AA4276D1DFF8A8C14E68A6EB6E
:1021C0000C0866452BD00DDC032E34D005DC36B36D
:1021D000012E19D0022E2FD11BE0112E16D0122E57
:1021E0002AD119E0B8F5881F19D006DCB8F5803F70
:1021F00015D0B8F5801F1FD111E0B8F5001F0ED023
:10220000B8F5041F18D10AE0CB6815E0CB681B1D98
:1022100012E0CB6808330FE0CB680C330CE08B681E
:102220002BB1012B4FF0080303D0456104E00423D8
:1022300002E0056100E00023FF2A01D8064601E024
:1022400000F104064FEA840501D9A5F12005D6F86E
:10225000008007FA05FC28EA0C0803FA05F548EAAD
:102260000508C6F800804D68ED0070D53E4DAE699A
:1022700046F00106AE61AD6924F0030605F00105E4
:1022800000953A4D06EB050CDCF80850A607360F12
:1022900007FA06F825EA0805DFF8D480404503D19F
:1022A0004FF0000825E052E0DFF8C880404502D139
:1022B0004FF001081DE0DFF8C080404502D14FF02B
:1022C000020816E0DFF8B480404502D14FF0030861
:1022D0000FE0DFF8AC80404502D14FF0040808E081
:1022E000DFF8A080404502D14FF0050801E04FF033
:1022F000060808FA06F848EA0508CCF808804D6890
:10230000D9F80060ED024D4601D5164300E0964332
:102310002E604D68DAF80060AD02554601D51643CF
:1023200000E096432E604D68DBF80060AD035D462B
:1023300001D5164300E096432E604D68DEF800603C
:10234000ED03754601D5164300E096432E60641CEC
:102350000A681646E2407FF429AFBDE8F88F000016
:10236000080401400000111000100240000001406C
:1023700000080140000C0140001001400014014021
:1023800000180140001C01408068084000D0012076
:1023900070470AB1016170470904FBE70148806892
:1023A000704700000800002002488168027811444C
:1023B0008160704708000020074810B5016841F0AF
:1023C00010010160032000F075F80F2000F006F8FE
:1023D00000F024F8002010BD0020024070B50D4D23
:1023E00004464FF47A712878B1FBF0F00A49096885
:1023F000B1FBF0F000F0DCFA48B9102C07D2002253
:102400002146501E00F036F800206C6070BD01209F
:1024100070BD000008000020140000200C4808B522
:10242000816941F001018161816901F0010100913F
:10243000C16941F08051C161C06900F080500090D5
:102440000448416821F0E06141F00071416008BD3D
:102450000010024000000140002809DB00F01F02CC
:10246000012191404009800000F1E020C0F80011F6
:1024700070470000F0B40E4B1B680C46C3F30223F8
:10248000C3F10705042D00D90425191D072901D220
:10249000002300E0DB1E012606FA05F1491E21405B
:1024A00099409E40761E16403143F0BC01F011B9B0
:1024B0000CED00E0064900F0070208684FF6FF0344
:1024C000184040EA0220034A1043086070470000A9
:1024D0000CED00E00000FA052DE9F0470F4605007D
:1024E00061D0434E306800F00700B84209D230682E
:1024F00020F0070038433060306800F00700B84231
:1025000051D128683B4C810712D5400703D560683C
:1025100040F4E06060602878000703D5606840F40C
:10252000605060606068A96820F0F0000843606057
:102530002878C00728D06868012810D021680228B0
:1025400010D0890700292EDA616821F003010143C8
:102550006160FFF723FF804641F288390DE0216872
:102560008903EFE78901EDE7FFF718FFA0EB08010A
:10257000494502D90320BDE8F0876068696800F02A
:102580000C00B0EB810FEFD1306800F00700B842CB
:102590000BD9306820F0070038433060306800F015
:1025A0000700B84201D00120E5E72878400705D5AB
:1025B0006068E96820F4E0600843606028780007FC
:1025C00006D56068296920F4605040EAC100606067
:1025D00000F038F86168084AC1F30311515CC84043
:1025E0000649086006480068FFF7F8FE0020C2E7C9
:1025F0000020024000100240623800081400002051
:102600000C0000200448054900684968044AC1F3E9
:102610000221515CC84070471400002000100240A5
:10262000723800080448054900684968044AC1F343
:10263000C221515CC84070471400002000100240C5
:10264000723800080E4A51680E4801F00C03042B42
:1026500011D0082B0FD10C48C1F38343C903C05CD0
:102660000AD55168084AC1F34041921E515C054A9F
:102670005043B0FBF1F070470449484370470000F5
:102680000010024000127A005238000800093D0094
:102690002DE9F84F040070D02078C04DC00749D014
:1026A0006868C0F38100012807D06868C0F3810022
:1026B000022809D16868C00306D52868800339D587
:1026C00060680028E7D035E06068B0F5803F0BD047
:1026D00010B1B0F5A02F11D0286820F48030286008
:1026E000286820F4802002E0286840F480302860C8
:1026F000606890B1FFF752FE06460AE0286840F491
:1027000080202860F0E700BFFFF748FE801B6428A8
:1027100073D828688003F7D50CE0FFF73FFE064624
:1027200005E000BFFFF73AFE801B6428F0D8286858
:102730008003F7D420789A4E80074FF001094FF0BC
:10274000000839D5686810F00C0F07D06868C0F32E
:102750008100022809D16868C00306D42868800770
:1027600014D52069012808D110E02069B0B1C6F85D
:102770000090FFF713FE074605E00AE1FFF70EFEA3
:10278000C01B0228C4D828688007F7D5286861696B
:1027900020F0F80040EAC10028600DE0C6F8008093
:1027A000FFF7FCFD074604E0FFF7F8FDC01B022819
:1027B00023D828688007F7D4207800072CD57948DB
:1027C000A169D9B1C0F80090FFF7E8FD074604E021
:1027D000FFF7E4FDC01B02280FD8686A8007F7D511
:1027E00071484FF4FA510068B0FBF1F0009000BF5F
:1027F0000098411E0091FAD20EE080E0C0F80080FF
:10280000FFF7CCFD074604E0FFF7C8FDC01B022818
:1028100075D8686A8007F7D42078400760D5E869E2
:102820000027C00008D4E86940F08050E861E869FA
:10283000012700F0805000905C480168C90513D45E
:102840000168834641F480710160FFF7A7FD82466D
:1028500006E000BFFFF7A2FDA0EB0A0064284ED8F7
:10286000DBF80000C005F5D5E06801280AD008B102
:10287000052813D0286A20F001002862286A20F079
:10288000040002E0286A40F001002862E06841F29A
:10289000883B98B1FFF782FD82460BE0286A40F042
:1028A00004002862EEE700BFFFF778FDA0EB0A0105
:1028B00059455AD8286A8007F6D50CE0FFF76EFD17
:1028C000824605E0FFF76AFDA0EB0A0159454CD8A6
:1028D000286A8007F6D41FB1E86920F08050E861CB
:1028E000E06988B36968C1F38101022944D00228F4
:1028F000C6F8608004D0FFF751FD044638E034E0AC
:10290000FFF74CFD074604E0FFF748FDC01B022817
:102910002BD828688001F7D4206AB0F5803F05D114
:102920006868A16820F4003008436860D4E90801B1
:102930000843696821F4741108436860C6F8609020
:10294000FFF72CFD044606E025E000BFFFF726FD5B
:10295000001B022809D828688001F7D51BE000BFBA
:10296000FFF71CFD001B022802D90320BDE8F88FE9
:1029700028688001F4D40EE00128F7D06868226A44
:1029800000F48031914204D1616A00F470108842F1
:1029900001D00120EAE70020E8E700000010024033
:1029A00000004242800442421400002000700040B7
:1029B00010B5401EB0F1807F01D3012010BD4FF053
:1029C000E02460610F21601700F083FE0020A06109
:1029D00007202061002010BD704710B50446006834
:1029E000406994F84110C0F3C010212911D180B181
:1029F0002068143050E8001F21F0800140E80012E8
:102A0000002AF5D1A06B08B1FFF76CF9204600F061
:102A1000B3FC2068406994F84210C0F3801022296A
:102A200011D180B12068143050E8001F21F040011E
:102A300040E80012002AF5D1E06B08B1FFF752F927
:102A4000204600F072FC002010BD7047F8B5016808
:102A500004460868CA684B6910F00F0F4FF0000574
:102A600059D003F0010602F49077374365D0C107CF
:102A700005D0D10503D5616C41F0010161644107C6
:102A800005D5D90703D0616C41F00201616481076B
:102A900005D5D90703D0616C41F0040161640107D9
:102AA00007D502F02001314303D0616C41F00801E9
:102AB0006164616C00293AD0800604D5900602D585
:102AC000204600F067FC20684069616CC0F380100C
:102AD000090700D460B3204600F027FC2068406955
:102AE000400621D52068143050E8001F21F0400135
:102AF00040E80012002AF5D1E06BA8B16D494163AE
:102B0000E06BFFF713F9002811D0E06B416B01B0C7
:102B1000BDE8F040084783060FD593060DD5204643
:102B2000BDE8F84000F036BC2046FFF78EFFF8BD48
:102B30002046FFF78AFF6564F8BD266B2023012E2F
:102B40007CD1C6067AD5D60678D508684868009044
:102B500048694FF00206400640D5E16B08684068BE
:102B60000004000CE8D0A28D8242E5D9E085886996
:102B700020282DD020680C3050E8001F21F48071EF
:102B800040E80012002AF5D12068143050E8001FF8
:102B900021F0010140E80012002AF5D1206814302C
:102BA00050E8001F21F0400140E80012002AF5D152
:102BB00084F84230256320680C3050E8001F21F073
:102BC000100140E80012002AF5D1E06BFFF78AF807
:102BD0006663A08DE18D401A81B22AE0A08DE18D5F
:102BE000401A81B2E08D0028A6D00029A4D0226826
:102BF0000C3252E8000F20F4907042E80007002FDA
:102C0000F5D12068143050E8002F22F0010240E88E
:102C10000027002FF5D184F84230256320680C305E
:102C200050E8002F22F0100240E80023002BF5D1DD
:102C300066632046FFF7D0FEF8BDFFE705062BD5FB
:102C4000150629D594F841002128F5D1A068B0F5E2
:102C5000805F01D12069B0B1206A411C21622168E6
:102C600000784860E08C401E0004000CE084E3D152
:102C70002068C16821F08001C1602068C16841F00E
:102C80004001C160D8E7206A0088C0F308004860AE
:102C9000206A801C2062E5E74006CDD55006CBD5E2
:102CA000CA68204622F04002CA6084F8413000F031
:102CB000EAF8C1E72D32000870B5040004D094F89A
:102CC0004100002510B106E0012070BD84F840509D
:102CD000204600F023F8242084F841002068C168D1
:102CE00021F40051C160204600F0B6FB2068016964
:102CF00021F4904101612068416921F02A0141617C
:102D00002068C16841F40051C1606564202084F8E6
:102D1000410084F842006563002070BD70B586B044
:102D20000025064600950195029503950068224905
:102D300088423ED12149886940F480408861886991
:102D400000F480400490886940F00400886188693C
:102D50001B4C00F0040004904815009002200190E4
:102D60000320039069462046FFF712FA2015CDE9AB
:102D70000005694620460295FFF70AFA124C1148F1
:102D8000C4E900058020C4E9025025616561A561A0
:102D90002046E561FFF786F908B1FEF7A1FFF4636D
:102DA0000022114625206662FFF764FB2520FFF70D
:102DB00053FB06B070BD0000003801400010024017
:102DC0000008014058000240C011002090F8423035
:102DD000202B01D00220704721B11AB100230363D8
:102DE00000F096BB01207047704770472DE9F8430B
:102DF000044690F841001F4616460D46202802D092
:102E00000220BDE8F8837DB176B100206064212006
:102E100084F84100FFF7C2FAA6848046E684A068E1
:102E2000B0F5805F02D003E00120EAE7206910B12D
:102E30002E4600250EE000260CE08021204600F002
:102E4000AFFBA0B9AEB116F8010B21684860E08C69
:102E5000401EE084E08C43464FF0000200970028BB
:102E6000EBD14FF04001204600F09AFB30B1032037
:102E7000C7E735F8020BC0F30800E6E7202084F826
:102E800041000020BDE77047FEE700002DE9F0415A
:102E9000154886B0816941F010018161806903267F
:102EA00000F01000CDE90360DFF840804FF480545B
:102EB000112569464046CDE90045FFF769F96710DD
:102EC000CDE90075694640460396FFF761F9012296
:102ED00021464046FFF75DFA012239464046FFF79A
:102EE00058FA06B0BDE8F081001002400010014021
:102EF0002DE9F04700272F4D824607244FF4006943
:102F00004FF001084FF48056002231462846FFF763
:102F100040FA0220FEF7D0FE012231462846FFF794
:102F200038FA49462846FFF72FFA18B108FA04F094
:102F30003843C7B20220FEF7BFFE641E64B2002C05
:102F4000E2DA002231462846FFF723FA0220FEF794
:102F5000B3FEBAF1000F15D000224C464946284670
:102F6000FFF717FA012231462846FFF712FA02202E
:102F7000FEF7A2FE002231462846FFF70AFA012298
:102F800021460EE0012249462846FFF702FA0122B7
:102F900031462846FFF7FDF90220FEF78DFE00229C
:102FA00031462846FFF7F5F90220FEF785FE384640
:102FB000BDE8F087001001402DE9F047184D0646A6
:102FC00007244FF001084FF400694FF480570022A6
:102FD00039462846FFF7DDF90220FEF76DFE08FAB4
:102FE00004F0304201D0012200E000224946284688
:102FF000FFF7CFF90220FEF75FFE0122394628468F
:10300000FFF7C7F9641EE2D5002239462846FFF7CC
:10301000C0F949462846BDE8F0470122FFF7B9B993
:103020000010014070B501220E4D140321462846C0
:10303000FFF7AFF90122D60231462846FFF7A9F97A
:103040000420FEF739FE002231462846FFF7A1F999
:103050000420FEF731FE21462846BDE870400022DC
:10306000FFF797B90010014070B50D4D4FF40064A3
:10307000002221462846FFF78CF90220FEF71CFEAD
:10308000012211032846FFF784F90520FEF714FEFC
:1030900021462846BDE870400122FFF77AB90000BA
:1030A000001001402DE9F041184D04464FF4006630
:1030B000641E24B20220FEF7FFFD31462846FFF7CA
:1030C00063F910B1002CF3DA01E0002C02DA0120E0
:1030D000BDE8F0810122170339462C462846FFF748
:1030E00058F90220FEF7E8FD31462046FFF74CF97B
:1030F00008B10220ECE7002239462046FFF749F9E3
:103100000220FEF7D9FD0020E2E700000010014098
:10311000094808B5416941F0010141614069002257
:1031200000F00100009011460F20FFF7A3F9BDE861
:1031300008400F20FFF790B900100240094808B579
:10314000816941F020018161816901F020010091D4
:10315000816941F004018161806900F00400009000
:1031600008BD0000001002400C4810B50A4901607B
:103170004FF461214160002181600C22C160C0E9EF
:1031800004128161C161FFF797FD002803D0BDE8FB
:103190001040FEF7A5BD10BD003801407811002099
:1031A000FEE7FEE770477047FFF7FEB830B58FB017
:1031B00028216846FDF7B1F814210AA8FDF7ADF8FB
:1031C00001210804CDE90010002402940225049195
:1031D000CDE907504FF4E01009906846FFF758FA20
:1031E00008B172B6FEE70F20CDE90A054FF4806002
:1031F000CDE90C4002210AA80E94FFF76DF90028D2
:1032000001D072B6FEE70FB030BD70470648011F0F
:1032100000F148024865C1E91602A1F5805202603A
:1032200000200880704700001C11002010B5406A83
:103230000021C185C184FFF708FC10BD70B5446A48
:103240002068406994F84110C0F3C010002521297E
:1032500004D118B1E584204600F08EF8206840695A
:1032600094F84210C0F38010222904D118B1E585EA
:10327000204600F05AF8606C40F010006064204670
:10328000FFF7E3FB70BD10B50146406A09680968A5
:103290004FF0000289062ED4C28501680C3151E836
:1032A000003F23F4807341E80034002CF5D101681D
:1032B000143151E8003F23F0010341E80034002CB1
:1032C000F5D10168143151E8003F23F0400341E893
:1032D0000034002CF5D1202180F84210016B012927
:1032E00009D101680C3151E8003F23F0100341E897
:1032F0000034002CF5D14263016B012902D0FFF7A5
:1033000073FD10BD818DFFF767FB10BD10B5406ADE
:1033100001214163016B012902D0FFF766FD10BD59
:10332000818D4908FFF758FB10BD01680C3151E849
:10333000002F22F4907241E80023002BF5D10168A0
:10334000143151E8002F22F0010241E80023002B44
:10335000F5D1016B012909D101680C3151E8002F29
:1033600022F0100241E80023002BF5D1202180F843
:10337000421000210163704701680C3151E8002FB1
:1033800022F0C00241E80023002BF5D1202180F873
:103390004110704708B590F84210222901D0022050
:1033A00008BD82684FF480539A4201D1016921B16E
:1033B000816A9A421BD04AB10AE00268816A526867
:1033C000C2F308020A80816A891C08E0026972B1AE
:1033D0000268526802F07F020A70816A491C8162A9
:1033E000C18D491E0904090CC18503D01BE0026888
:1033F0005268F1E70168CA6822F02002CA600168D9
:10340000CA6822F48072CA6001684A6922F0010227
:103410004A61202180F8421000214163026B012A99
:1034200003D0FFF7E1FC002008BD016301680C3107
:1034300051E8002F22F0100241E80023002BF5D1C3
:1034400001680A68D20602D50A6849680091818D30
:10345000FFF7C2FAE7E7000070B5044600680169AB
:10346000E26821F44051114301612169A0680843D9
:10347000616908432168CA6841F20C639A430243B8
:10348000CA6020684169A26921F440711143416119
:103490001E492068884202D1FFF7C4F801E0FFF717
:1034A000B1F800EBC00101EB0012606864218000FC
:1034B000B2FBF0F3B3FBF1F36FF018067343B2FB0A
:1034C000F0F5B2FBF0F605EB8305322303EB0515AF
:1034D000B5FBF1F5B6FBF1F605F0F00505EB0615C9
:1034E000B2FBF0F6B2FBF0F0B0FBF1F06FF01802B7
:1034F000504306EB800003EB0010B0FBF1F02168B5
:1035000000F00F002844886070BD000000380140C2
:1035100038B5816204468285002013466064222209
:1035200084F84220E56B1B4AAA62E56B1A4AEA62FC
:10353000E56B1A4A2A63E26B50630A462168E06B26
:10354000091DFEF7EDFD20680168406800902069C4
:1035500048B120680C3050E8001F41F4807140E809
:103560000012002AF5D12068143050E8001F41F005
:10357000010140E80012002AF5D12068143050E81B
:10358000001F41F0400140E80012002AF5D1002060
:1035900038BD0000873200080D3300083D320008B6
:1035A0002DE9F041984617460E460446069D27E051
:1035B000681C25D02DB1FEF7F1FEA0EB0800A84253
:1035C0001ED920680C3050E8001F21F4D07140E86B
:1035D0000012002AF5D12068143050E8001F21F0B5
:1035E000010140E80012002AF5D1202084F84100B2
:1035F00084F84200002084F840000320BDE8F081F8
:103600002068006836EA000004D00020B842CFD01D
:103610000020F3E70120F9E738B51E48006801688B
:10362000C943C90630D40168002240681B49009094
:10363000194C096820884968401A00F2011080B2CC
:10364000174920800844616D4860606D08306065EE
:10365000E16D884201D1201D606521881148C1F5C6
:103660000063FF2B03DD0844616D086002E0616DBB
:10367000086022800748FFF7B0F9606D40F2011240
:1036800001680448FFF7A2FBBDE838400148FFF796
:10369000DDB900007811002018110020C0110020B1
:1036A0001701002018010020FEE7490050EAC12060
:1036B00018BF04204A0D18BF40F0010040F2FF720D
:1036C000B2EB515F08BF40F00200012808BF05209F
:1036D00070470907090E002804DB00F1E02080F89C
:1036E0000014704700F00F0000F1E02080F8141D76
:1036F000704730380A2801D20120704700207047F7
:10370000FEF75AFEFFF752FDFFF718FDFFF700FD29
:10371000FFF72AFD40F2011216491748FFF756FB42
:1037200015480068C16841F01001C160FFF76EFDE7
:10373000FFF7ACFB0024E006000E1049FEF768FA24
:103740000520FEF7ADFA641CA4B2202CF3D34FF48D
:1037500080720B490020FEF749FA094D00242146EA
:103760002A5D08A000F016F8641CA4B2FF2CF6D95C
:10377000FEE7000018010020781100200000002062
:1037800018000020B5D8D6B72564203D2025780D37
:103790000A0000000FB414482DE9F04107AA069969
:1037A000FCF78AFD1048FCF799FD86B200240F4D06
:1037B0000D4F4FF0FF380BE00168C9430906FBD4F9
:1037C0003919434601220948FFF710FB641CA4B2D3
:1037D0002868B442F0D30168C9434906FBD4BDE868
:1037E000F0015DF814FB000018090020781100209A
:1037F00010B500290AD00878002807D00548784479
:10380000FDF7C8FD002801D0002010BD0248784413
:1038100010BD00009A0100009201000010B50029BF
:103820000AD00878002807D005487844FDF7B2FD93
:10383000002801D0002010BD0248784410BD0000CF
:103840008A01000082010000FDF7B9B9FDF7EEBA68
:10385000010202030405060708090A0B0C0D0E0FEE
:103860001010000000000000000001020304060721
:10387000080900000000010203040000000000002D
:1038800000000000303132333435363738394142A8
:1038900043444546403058003031323334353637B2
:1038A000383961626364656640307800040000085E
:1038B0000000000000000002000100001030313262
:1038C0003334353637383961626364656678700041
:1038D0003031323334353637383941424344454646
:1038E0005850000002400000000000A0000000004E
:1038F00005400000000000C8000000000C4000006F
:103900000000409C00000000194000000020BCBEE8
:103910000000000034400000BFC91B8E00000004FE
:10392000B5400000504BCFD06607E2CF0100000049
:103930006C4100003E8251AADFEEA7340100000076
:10394000D9420000DCB5A0E23A301F97FFFFFFFF2D
:10395000B4450000FD25A0C8E9A3C14FFFFFFFFF4C
:10396000FF3F00000000008000000000FF3F00005B
:103970000000008000000000C43A000800000020A1
:10398000180000006C010008DC3A00081800002054
:1039900050180000880100081C00000043000000CF
:1039A000F8FFFFFF0C0000000E0000000F000000F9
:1039B0002E0000001001000043000000F8FFFFFF90
:1039C0000040404040404040404041414141414032
:1039D00040404040404040404040404040404040E7
:1039E0004005020202020202020202020202020276
:1039F000022020202020202020202002020202027B
:103A000002029090909090901010101010101010D2
:103A100010101010101010101010101002020202DE
:103A20000202888888888888080808080808080822
:103A3000080808080808080808080808020202021E
:103A40004000000000000000000000000000000036
:103A50000000000000000000000000000000000066
:103A60000000000000000000000000000000000056
:103A70000000000000000000000000000000000046
:103A80000000000000000000000000000000000036
:103A90000000000000000000000000000000000026
:103AA0000000000000000000000000000000000016
:103AB0000000000000000000000000000000000006
:103AC00000000000000102030405060701000000D9
:0C3AD00010000000000000000024F400C2
:0400000508000131BD
:00000001FF
