:020000040800F2
:1000000040200020810200087B410008C33D000819
:10001000794100088D2300086148000800000000B5
:10002000000000000000000000000000DD420008A9
:10003000C9230008000000007D410008DF420008DD
:100040009B0200089B0200089B0200089B0200081C
:100050009B0200089B0200089B0200089B0200080C
:100060009B0200089B0200089B0200089B020008FC
:100070009B0200089B0200089B02000891230008D5
:100080009B0200089B0200089B0200089B020008DC
:100090009B0200089B0200089B0200089B020008CC
:1000A0009B0200089B0200089B0200089B020008BC
:1000B0009B0200089B0200089B0200089B020008AC
:1000C0009B0200089B0200089B0200089B0200089C
:1000D0009B020008D14700089B0200089B02000811
:1000E0009B0200089B0200089B0200089B0200087C
:1000F0009B0200089B0200089B0200089B0200086C
:100100009B0200089B0200089B0200089B0200085B
:100110009B0200089B0200089B0200089B0200084B
:100120009B0200089B0200089B0200089B0200083B
:1001300000F002F800F090F80AA090E8000C824469
:100140008344AAF10107DA4501D100F085F8AFF246
:10015000090EBAE80F0013F0010F18BFFB1A43F0A5
:1001600001031847484D0000684D0000103A24BFB5
:1001700078C878C1FAD8520724BF30C830C144BF0C
:1001800004680C607047000000230024002500264E
:10019000103A28BF78C1FBD8520728BF30C148BFEA
:1001A0000B6070476E2900F0DD81702900F01F831D
:1001B000662904F0C185652904F0BE85672904F02D
:1001C000BB85612904F0BA8503681B0A28BF41F08A
:1001D0008001692900F08A81642900F087817529EE
:1001E00000F084816F2900F0AD82782900F0EB8265
:1001F000E92900F04782E42900F04482F52900F063
:100200004182EF2900F0AA82F82900F0EA8203680F
:10021000DB0928BF41F08001632901F01D807329AB
:1002200001F02280E32901F02D80F32901F03280D2
:10023000002070471FB501F07FF804000020002166
:1002400004F064FD401C60600020002104F048FDC3
:10025000E0601FBD10B510BD01F040F81146FFF77A
:10026000E9FF04F021FC01F019F903B4FFF7F2FFF4
:1002700003BC01F05DF9000080F3088870470000BE
:100280000948804709480047FEE7FEE7FEE7FEE72A
:10029000FEE7FEE7FEE7FEE7FEE7FEE70448054966
:1002A000054A064B70470000414300083101000831
:1002B000401A002040200020401C0020401C00204C
:1002C000B2F120030AD5C2F1200320FA02F001FAAC
:1002D00003F321FA02F140EA0300704721FA03F028
:1002E0004FF00001704700001CB50C46064B7B44E4
:1002F00069460090204600F04EF904460020694609
:1003000000F05CF920461CBDCB02000010B5431C78
:1003100002E010F8011B71B18107FAD14FF00132F0
:1003200002C88C1A8C4314EAC211F9D0C01A0A060A
:1003300003D0C01E10BDC01A10BD0A0401D0801E1B
:1003400010BD0902FCD0401E10BD032A40F23080CF
:1003500010F0030C00F0158011F8013BBCF1020F06
:10036000624498BF11F801CB00F8013B38BF11F887
:10037000013BA2F1040298BF00F801CB38BF00F89E
:10038000013B11F0030300F00183083AC0F008803C
:1003900051F8043B083A51F804CBA0E80810F5E7FF
:1003A000121D5CBF51F8043B40F8043BAFF30080E2
:1003B000D20724BF11F8013B11F801CB48BF11F857
:1003C000012B24BF00F8013B00F801CB48BF00F827
:1003D000012B70474FF0000200B513469446964635
:1003E000203922BFA0E80C50A0E80C50B1F1200148
:1003F000BFF4F7AF090728BFA0E80C5048BF0CC0F6
:100400005DF804EB890028BF40F8042B08BF704753
:1004100048BF20F8022B11F0804F18BF00F8012BC5
:10042000704770477047704770B50446856900682B
:10043000C10601D5302600E02026C00707D070BDD8
:10044000D4E9012130469047206A401C20626D1E8D
:10045000F6D570BD70B5044685690078C00707D130
:1004600070BDD4E9012120209047206A401C206201
:100470006D1EF6D570BD09684A0501D540B27047BA
:10048000C905FCD500B2704709684A0501D5C0B25C
:100490007047C905FCD580B2704770B50C4605465B
:1004A000012A05D02878800600D5EA69002302E0F9
:1004B000012305E05B1C934202D2E05C0028F9D1E5
:1004C000A869E618C01AA861286A18442862284654
:1004D000FFF7AAFF04E0D5E9012114F8010B9047CA
:1004E000B442F8D32846FFF7B5FF70BD2DE9F041BF
:1004F0000646002410687529314616A510D0FFF76E
:10050000BAFF002802DA404213A507E031688A07E3
:1005100001D512A502E0490704D511A5012401E087
:10052000FFF7B2FF00210A2206F1240709E0B0FB21
:10053000F2FCB0FBF2F302FB1C003030785418469A
:10054000491C0028F3D123462A463046BDE8F04135
:1005500000F093BA000000002D0000002B00000006
:100560002000000011680268006A530501D5087078
:100570000AE0D30501D5088006E0130603D5C217AB
:10058000C1E9000200E008600120704701694A1CCF
:1005900002610878704700B58FB0CDE901310021C4
:1005A000059105497944CDE903101146684600F0EC
:1005B00029F90FB000BD0000E5FFFFFF0A6802F84F
:1005C000010B0A60704700002DE9FF5F15468A465F
:1005D0000446DFF8AC80F8440027D8E900103E4616
:1005E000CDE9001010E03AF816106A4602A800F0B3
:1005F00055FE411C07D02178890603D5E2693918D8
:1006000091420DD80744761C2078800602D5E06917
:10061000B84205DDAE42E6DB3AF816000028E2D12A
:10062000A069C01BA0612046FFF7FEFED8E90010BC
:10063000CDE90010002017E03AF818106A4602A829
:1006400000F02CFEB0F1FF3F81460BD000250DF1EC
:10065000080B05E0D4E901211BF8050090476D1C4B
:100660004D45F7D308F10100B0428046E4DB206A33
:10067000384420622046FFF7EDFEBDE8FF9F0000F2
:10068000924700002DE9F0418046D21D22F007027A
:100690000025D2E90002F52915A614D0011E72F139
:1006A000000106DA0023D0EB030063EB020211A67F
:1006B00008E0D8F800108B0701D50FA602E0490723
:1006C00001D50EA601251146002408F1240704E0F7
:1006D00000F08EF930323A55641C50EA0102F7D12D
:1006E0002B46324621464046BDE8F04100F0C5B9F0
:1006F000000000002D0000002B0000002000000082
:1007000030B4002100F1240408E002F00705D2080B
:10071000303542EA4372DB086554491C52EA03054E
:10072000F3D10468002310A2250708D504F02004A3
:100730000C4304D0C46901230CA2641EC46130BC04
:1007400000F09BB910B5044621461068FFF79CFEE7
:1007500002462046BDE810400023D1E7D21D22F01A
:100760000701D1E90023CBE70000000030000000C2
:10077000F0B40D460188090502D5214C7C4402E005
:100780001F4C7C440E34002100F1240608E002F0E6
:100790000F071209E75D42EA03721B097754491CEF
:1007A00052EA0307F3D102780023120704D5702D13
:1007B00006D009B1022311342246F0BC00F05DB925
:1007C00001231034F8E770B504460D462146106841
:1007D000FFF75AFE024629462046BDE87040002336
:1007E000C6E7D21D22F00703D3E90023C0E7036860
:1007F000126843F0200303600823C3610023B7E7B6
:10080000F44500002DE9F05F894604464FF0000AE8
:10081000DFF874B1FB44C0F820A02046E1688847A7
:10082000002874D0252806D0D4E901219047206AF9
:10083000401C2062F1E700265F462046E1688847B9
:100840002028054607DB312D05D2781910F8200C39
:1008500008B10643F1E7B00701D526F00406C4F855
:100860001CA00027C4F818A02A2D09D0284604F09F
:1008700013F938B304EB8708303DC8F8185019E075
:1008800059F8041B204604EB87029161E168884710
:10089000012F054618D1E069002820DA26F020064D
:1008A0001DE0D8F8180000EB800005EB4000303860
:1008B000C8F818002046E1688847054604F0ECF8BF
:1008C0000028EED1012F0AD02E2D08D12046E16854
:1008D00088477F1C0546022F46F02006C4DBA0692E
:1008E000002803DA404246F00106A061F00701D07B
:1008F00026F010066C2D0BD0682D09D04C2D39D068
:100900006A2D35D0742D35D07A2D33D016E038E0ED
:10091000E1682F4620468847B842054609D16C2F2A
:1009200026D04FF48060E16806432046884705469C
:1009300004E06C2F1AD04FF4807006430DB3A5F17C
:100940004100192802D8203546F400664A46294657
:10095000204626604E46FFF725FC80B101280BD0CB
:10096000F61D26F0070000F1080956E74020E4E7ED
:100970008020D8E70020D6E706F104094DE7284695
:1009800052E7206ABDE8F09F8445000010B5203A88
:10099000C0F00B80B1E81850203AA0E81850B1E838
:1009A0001850A0E81850BFF4F5AF5FEA027C24BFEE
:1009B000B1E81850A0E8185044BF18C918C0BDE8E5
:1009C00010405FEA827C24BF51F8043B40F8043BAE
:1009D00008BF7047D20728BF31F8023B48BF11F863
:1009E000012B28BF20F8023B48BF00F8012B7047BD
:1009F00030B5B0F10A024FEA900E71F100034EEAF1
:100A0000817EB0EB0E0061EB91014FEA101E4EEAC1
:100A1000017E10EB0E0041EB11114FEA102E4EEA51
:100A2000016E10EB0E0041EB11214FEA104E4EEA21
:100A3000014E10EB0E0041EB1141401841F1000155
:100A40004FEAD00040EA41704FEAD10110EB800537
:100A50004FEA810444EA907444EB01046D1944EBBD
:100A60000404521BA3414FF0000348BF0A3200D5D3
:100A700030BD401C41F1000130BD2DE9F0470D466D
:100A800099469246044600F124080168880604D578
:100A9000E06921F01001216000E00120A84201DDA1
:100AA000471B00E00027A1697A1902EB0900081A28
:100AB000A0612078C00602D42046FFF7B5FC0026CE
:100AC00008E0D4E901211AF806009047206A401C8A
:100AD000761C20624E45F4DB2078C0060AD52046FD
:100AE000FFF7A2FC06E0D4E9012130209047206AFC
:100AF000401C2062381EA7F10107F4DC07E0D4E9AE
:100B0000012118F805009047206A401C2062281E29
:100B1000A5F10105F3DC2046FFF79CFC20780006D8
:100B200002D50220BDE8F0870120FBE770472DE9E0
:100B3000FF4F0C461E464FF0FF378BB0D2E9000145
:100B4000DDF860800A908A46C1F30A5505B93D4632
:100B5000002108464FF00000BAF1000F00F44000F9
:100B600005DA00EB80004FF4400101EA50004FEA43
:100B70009059B9F1010F00DDB9460A9850EA4A00D0
:100B80000ED044F61050A5F2FF3545432F14B8F1AE
:100B9000000F1ED07542291E1EDDC9F100021CE0A7
:100BA000B8F1010F4FF0000001D0302103E0F24313
:100BB00005E02154401CB042FBDB304600220021FE
:100BC00021540B99C1F80880C1E900200FB0BDE89D
:100BD000F08FBD1B6D1CDEE74A4600DA694206A8AD
:100BE00000F0EEFB06AB93E8070003AB83E80700D9
:100BF00050460A9900F0A3FC8DE80700A0F50050CC
:100C00001F3800900398002D09DD42F21F014A466B
:100C1000084403A90390684600F002FF08E0A0F52D
:100C200000504A461F3803A90390684600F00CFFA5
:100C30008DE807000004000C03D04FF0FF3041089E
:100C400000E01046B8F1000F03D0002200921546D4
:100C50001EE0751E05D4FFF7CBFE303262556D1EC7
:100C6000F9D5B3460122084302D000227F1C04E0DC
:100C70002078302801D100227F1E002A099786D0D3
:100C80001DE0112D07DAFFF7B3FE303262556D1CFF
:100C900050EA0102F5D1084302D00098C8B10EE035
:100CA0000021681E05E0235C625C63542254401EF0
:100CB000491C8142F7DBAB46A81B401E099000206F
:100CC00004F80B000B98099AC0F80880C0E9002BC3
:100CD0007CE711264FF0000859E72DE9F04F8846D0
:100CE0000446D21D22F0070191B0D1E90001CDE9FF
:100CF0000A0103F09AFE02460B98C00F01D02D2086
:100D000007E02068810701D52B2002E0202101EABD
:100D1000C000032A099001D0072A05DB034641469B
:100D2000204600F00DFB0BE12078800601D5E0693C
:100D300000E00620B8F1650F814606D0B8F1660FD5
:100D400018D0B8F1670F70D131E00020B9F1110F60
:100D5000009001DB112301E009F101030AAA01A9B6
:100D60000CA8FFF7E4FEDDE90C70002609F101058F
:100D7000834647E001204B4600904FF000470AAA07
:100D800001A90CA8FFF7D3FEDDE90DB00C995D4673
:100D9000002610B909F101000D18B9EB050003D4C4
:100DA000C0F1FF3609F10105A5EB09002BE0B9F10F
:100DB000010F01DA4FF001090020B9F1110F009085
:100DC000484601DD112300E003460AAA01A90CA848
:100DD000FFF7ADFEDDE90C704D4600268346207816
:100DE00000070AD4AB4500DA5D4601A8012D04DDF9
:100DF000411911F8011C302907D04F4502DA17F1CB
:100E0000040F04DA012082460FE06D1EEEE7002F8A
:100E100002DCED1B3E4403E0781CA84200DD7D1C93
:100E2000B81B00F1010A4FF000472078000703D4F7
:100E3000AA4501DB4FF0FF3A0021B7F1004F0DF159
:100E400043088DF8431024D002202B23002F01DA11
:100E50007F422D230A21021EA0F1010000DC5FB1B8
:100E600097FBF1FC97FBF1F201FB1C7C17460CF1A0
:100E7000300C08F801CDEEE7A8F1010003702188DD
:100E8000090501D5452100E06521A0F1010800F820
:100E9000011C09980FA9A1EB0807FF1D00B1012053
:100EA000411901EBEA70A1693844081A401EA0619B
:100EB0002078C00602D42046FFF7B6FA099828B178
:100EC000D4E901219047206A401C20622078C006A6
:100ED00022D52046FFF7A8FA1EE0002E04DBB3451A
:100EE00002DD01A8805D00E03020D4E901219047B7
:100EF000206A401C2062761CAAF101005FEA000A09
:100F00000AD100F019FAC0680168405CD4E90121F7
:100F10009047206A401C2062281EA5F10105DCDCF8
:100F200007E0D4E9012118F8010B9047206A401C22
:100F30002062381EA7F10107F3DC2046FFF78AFA8A
:100F4000032011B043E600002DE9F04F04460D46A2
:100F5000D21D22F0070089B0D0E90092484617461A
:100F6000394603F062FD0246F80F01D02D2307E059
:100F70002068810701D52B2302E0202101EAC0036C
:100F80008DF820300BB1012000E00020032A8246BA
:100F900001D0072A04DB2946204600F0D1F93DE1C3
:100FA0002078800601D40D2500E0E569C7F30A56D4
:100FB0000D2D49DA00214FEA175B08464FF000007B
:100FC000002F00F4400007DA00EB80004FF44001EE
:100FD00000EBD07001EA60008115012901DD4FF0BE
:100FE000FF3100224FEA850CBCF1180F06D31346DF
:100FF000ACF118004FF08052C24003E04FF4801370
:1010000023FA0CF30CF10C0CBCF1200F04D3ACF15F
:10101000200C09FA0CF001E007FA0CF000294FF05F
:10102000004801DD18B90FE00ED140450CD319EB93
:1010300002095F4121B9404502D19F4329EA0209D3
:10104000BBEB175F00D0761C2088000502D57B48DB
:10105000784402E079487844193808AA302302F825
:101060000A30037C0AF10101002E0AF1020A5354EE
:101070006A4602DC4FF0300101E04FF031014FF0E1
:1010800001088DF8001002D0A6F2FF3603E059EAFD
:10109000470100D06A4E002D02DC2178090704D5F3
:1010A0004FF002082E218DF80110C44600210BE0FC
:1010B000C7F303433F01C35C491C6D1E02F80830AF
:1010C000052908F1010801DA002DF1DC00210CE00E
:1010D00000EB1973491C1B786D1E082902F80830B3
:1010E0004FEA091908F1010801DA002DF0DC217836
:1010F000890602D514E0A8F10108E04505DD02EB00
:10110000080111F8011C3029F5D0B8F1000F07DDF6
:1011100002EB080111F8011C2E2901D1A8F10108E8
:10112000002D05DD3E2102F808106D1E08F10108B2
:10113000407C002E02F8080008F1010804DA2D2096
:10114000764202F8080002E02B2002F808000A218B
:101150004FF47A70864208F101080BDB96FBF0F33E
:10116000303302F8083096FBF0F308F1010800FB79
:10117000136601E0642E0CDB642096FBF0F3303341
:1011800002F8083096FBF0F308F1010800FB136643
:1011900001E00A2E06DB96FBF1F0303002F8080081
:1011A00008F1010896FBF1F001FB1060303002F805
:1011B0000800A16908F1010808EB050202EB0A002A
:1011C000081AA0612078C00602D42046FFF72CF947
:1011D000216A08AE01EB0A00206204E0D4E9012193
:1011E00016F8010B9047BAF1010AF7D22078C00631
:1011F00002D52046FFF718F96E4609E016F8010BF4
:101200003E280FD0D4E901219047206A401C20627B
:10121000B8F10108F2D22046FFF71CF909B003200B
:10122000BDE8F08F206A2844206203E0D4E9012160
:10123000302090476D1EEBD3F8E700006C3D0000B6
:1012400002FCFFFF10B5436913B1AFF3008001E06A
:10125000FFF723F9012010BD127800F124010A7074
:1012600000224A700122EDE711684FF0FF32E9E7F2
:1012700010B5436913B1AFF3008001E0FFF7A4F9A3
:10128000012010BD128800F1240182840022C28452
:101290000122EDE711684FF0FF32E9E770B516461D
:1012A0000C46054600F040F8036893F80101012858
:1012B00006D0FF2C0FD8185D68B101202C7070BDCE
:1012C000D3F807013246214603F2071303442846A8
:1012D000BDE8704018474FF0FF3070BD754600F014
:1012E000E3F8AE4605006946534620F00700854600
:1012F00018B020B5FEF7D2FFBDE820404FF0000641
:101300004FF000074FF000084FF0000B21F00701ED
:10131000AC46ACE8C009ACE8C009ACE8C009ACE830
:10132000C0098D467047000010B500F005F8001D9B
:1013300010BD00BFD939000000487047001A0020D6
:101340002DE9F0411F46044603260168072A01F4EF
:10135000006004DB08B116A505E016A503E008B19E
:1013600015A500E015A521F010002060A069C01EA1
:10137000A0610FB1401EA0612046FFF755F84FB1A4
:10138000D4E9012138469047206A401C2062C01CE5
:10139000206206E0206AFAE7D4E9012115F8010B82
:1013A0009047761EF8D22046FFF754F8BDE8F0814A
:1013B0004E414E006E616E00494E4600696E6600F9
:1013C0002DE9F047814616468AB0334878440DC867
:1013D0008DE80D0030487844801C03AC0DC884E8CB
:1013E0000D0041F69B300844372190FBF1F290FB51
:1013F000F1F5A5F1800501FB12041B3C02D5644206
:10140000012000E00020DFF890A080460027FA4489
:10141000AAF1BE0A0DE0E00709D03246684607EBA4
:1014200047010AEB810100F00FFB8DE80700641013
:101430007F1C002CEFD1184F7F44AC3F18E0E80729
:1014400014D007EB04100DF1180A90E80E008AE89A
:101450000E00C068F04201D198190890324606A9E2
:1014600003A800F0F1FA03AB83E807006D10641CD9
:10147000002DE4D132466946B8F1000F03A802D02E
:1014800000F0CEFA01E000F0DFFAC9E90001C9F886
:1014900008200AB0BDE8F087803A00000446AFF3A8
:1014A00000802046FEF7E1FE00487047E01900206A
:1014B0004FF0013C50F8042B51F8043B9A4221D1E3
:1014C000A2EB0C03934313EACC1317D150F8042B6F
:1014D00051F8043B9A4215D1A2EB0C03934313EA53
:1014E000CC130BD150F8042B51F8043B9A4209D18C
:1014F000A2EB0C03934313EACC13DBD04FF00000B4
:10150000704700BFD01A01BAB1FA81F101F0180199
:1015100022FA01F0CB40C1F12001DBB2C0B2C01A07
:101520002CFA01F3D11A914311EAC311E6D17047A5
:1015300001491820ABBEFEE72600020070475FEAB3
:10154000400C08BF91F0000F4FEA8C234FEAC122F4
:1015500043EA51514FEA1C5018BF00F5F0404FEAE2
:10156000300018BF41F000415FEA6C5C00F0298058
:10157000BCF1FF3F08BF40F080407047130C06BF2E
:1015800012044FF0100C4FF0000C130E04BF1202A7
:101590000CF1080C130F04BF12010CF1040C930F93
:1015A00004BF92000CF1020CD30F04BF52000CF1E7
:1015B000010C11464FF00002A0F11F00A0EB0C003F
:1015C000704711F0004F08BF704731F000413FF401
:1015D000D5AF0B0C06BF09044FF0100C4FF0000CF8
:1015E0000B0E04BF09020CF1080C0B0F04BF09011C
:1015F0000CF1040C8B0F04BF89000CF1020CCB0F13
:1016000004BF49000CF1010CCCF12003A0EB0C004D
:1016100022FA03F302FA0CF241EA030100F101009D
:10162000704720F07F4C80EA030023F07F47ACEB4B
:10163000070303F57C5300F0004003F1FF032DE99D
:1016400080494FEA154B09B44FEA144325EA0B4E83
:1016500024EA03480FF2042606EB132749083E78D4
:101660005FEA320203FB0667C7F5000707FB06F6D1
:101670004FEA54374FEAD64606F1020607FB066CDE
:10168000CCF1005C4FEA1C472CEA074C07FB06F440
:101690000CFB06F504EB15464FEA961634BF002006
:1016A0004FF000404FEAD13706FB07FC4FEA1C4CD5
:1016B0000CFB0BF7D21B03FB0CF761EB07010CFBD8
:1016C0000EF7B0EB074072EB17420CFB08F734BF84
:1016D000A2EB0742B2EB074261EB17414FEA0C4421
:1016E0004FEA910706FB07FC4FEA1C4C0CFB0BF77B
:1016F000B0EBC74072EB573203FB0CF734BFA2EBE1
:10170000C742B2EBC74261EB57310CFB0EF7B0EBAF
:10171000C70072EB57720CFB08F734BFA2EBC7028D
:10172000B2EBC70261EB5771039F4FEA816141EA57
:10173000921104EBCC044FEAD1374FEA826206FBE8
:1017400007FC42EA90124FEA80604FEA1C4C0CFB07
:101750000BF7D21B03FB0CF761EB07010CFB0EF739
:10176000B0EB074072EB17420CFB08F734BFA2EB5B
:101770000742B2EB074261EB17414FEA8C554FEA43
:10178000910704EB9C2406FB07FC4FEA1C4C0CFB66
:101790000BF7B0EBC74072EB573203FB0CF734BFCB
:1017A000A2EBC742B2EBC74261EB57310CFB0EF71D
:1017B000B0EBC70072EB57720CFB08F734BFA2EB1B
:1017C000C702B2EBC70261EB577115EB4C254FEA2C
:1017D000816141EA92114FEA82624FEAD13742EACF
:1017E000901206FB07FC44F100044FEA80604FEAC8
:1017F0001C4C0CFB0BF7D21B03FB0CF761EB070136
:101800000CFB0EF7B0EB074072EB17420CFB08F72E
:1018100034BFA2EB0742B2EB074261EB174115EB75
:101820001C154FEA813141EA92414FEA823242EA85
:1018300090424FEA80304FEA0C7644F1000448EAC7
:1018400003434EEA0B484FF0000EB2EB080C71EB6D
:10185000030724BF624639464EEB0E0E4FF0000BD5
:101860000018524149414BEB0B0BB2EB080C71EBEA
:1018700003077BF1000B24BF624639464EEB0E0E88
:101880004FF0000B0018524149414BEB0B0BB2EBF0
:10189000080C71EB03077BF1000B24BF624639464D
:1018A0004EEB0E0E51EA020718BF46F0010616EB8A
:1018B0000E7655F1000254F1000103D5BDE889010F
:1018C000BDE80088BDE88901BDE80048B61952416D
:1018D00041EB0101A3F10103704780807F7E7D7C95
:1018E0007B7A7978777676757473727171706F6EB2
:1018F0006E6D6C6C6B6A6A6968686766666564645D
:10190000636362616160605F5F5E5E5D5D5C5C5BE6
:101910005B5A5A5959585857575656555555545455
:10192000535352525251515050504F4F4F4E4E4DB3
:101930004D4D4C4C4C4B4B4B4A4A4A4949494848FF
:10194000484747474746464645454544444444433F
:1019500043434342424242414141002B26D4770057
:1019600021D01CB54FEA370703B44FF010004FF0F9
:1019700010014FF000000FBCBDE810400BF1010B4F
:10198000BBF1010F08BF5FEA170722BF12F1010286
:1019900011F101014FF0004143F1000300F000405C
:1019A00043EA00007047F9D35708DAE746EA0646EB
:1019B00013F1400F4FEA16461FDD13F1200FDFBF72
:1019C00016430A46002120335B42C8D0C3F12007EA
:1019D00046EA064602FA07F74FEA164646EA0706BF
:1019E000C3F1200722FA03F201FA07F721FA03F103
:1019F0004FF0000342EA0702B1E746EA020646EA70
:101A000006464FEA164646EA0106BCBF46EA0646C7
:101A1000360C4FF000034FF000024FF000019EE73C
:101A20002DE9C048934630B491E8380007C831EA40
:101A3000400C48BF34EA430C03D5FFF7F2FDFFF733
:101A40008CFFF0BCBDE800882DE9C048934630B457
:101A500091E8380007C810F0804F08BF13F0804F9E
:101A600003D100F005F8FFF778FFF0BCBDE800886F
:101A700020F07F4780EA030023F07F4C07EB0C0344
:101A8000A3F57C5300F00040A3F1FE0392F0000F99
:101A900000F0B38095F0000F00F077802DE9014948
:101AA0004FEA11404FEA144621EA004800FB06FCC9
:101AB00024EA064708FB06F607FB08F800FB07F7D1
:101AC00018EB06484CEB164C4FEA124B18EB074844
:101AD0004FEA15464CEB174022EA0B4E0BFB06FC77
:101AE00025EA06470EFB06F607FB0EFE0BFB07F783
:101AF0001EEB064E4CEB164C4FF000061EEB074E4D
:101B00004CEB174B18EB0B0840F1000018EB0E0BD9
:101B100058EB000840F100008F1A4FF000013CBF65
:101B2000C943661B14BFB5EB040C00213CBFC9437D
:101B3000F61B4FEA17444EEA8E0E27EA04454FEA99
:101B40001C4704FB07622CEA074C05FB07F70CFB5C
:101B500005F604FB0CFC16EB074642EB174216EBAE
:101B60000C4642EB1C421BEB060658EB02024141BD
:101B700046EA9E0601D5BDE80189B619524141EBFE
:101B80000101A3F10103BDE801894FEA14454FEAC1
:101B9000114724EA054621EA074C05FB07F406FB3A
:101BA00007F70CFB06F105FB0CFC11EB074144EBBE
:101BB00017444FEA124711EB0C4144EB1C4422EA54
:101BC000074C05FB07F206FB07F70CFB06F605FBC7
:101BD0000CFC16EB074642EB174216EB0C4642EBA9
:101BE0001C456A1854F1000148BF7047B6195241AC
:101BF00041EB0101A3F10103704795F0000F37D0CD
:101C00004FEA11424FEA144721EA024624EA074C00
:101C100002FB07F106FB07F70CFB06F402FB0CFCCA
:101C200014EB074441EB17414FEA154714EB0C4402
:101C300041EB1C4125EA074C02FB07F506FB07F7C1
:101C40000CFB06F602FB0CFC16EB074645EB1745B2
:101C500016EB0C4645EB1C42121951F1000148BF2E
:101C60007047B619524141EB0101A3F101037047DE
:101C70004FEA14454FEA114724EA054621EA074C8A
:101C800005FB07F106FB07F70CFB06F24FF0000619
:101C900005FB0CFC12EB074241EB174112EB0C4227
:101CA00051EB1C4148BF7047921841EB0101A3F171
:101CB0000103704770B505460C4602F05BF9A020A1
:101CC00002F01CF9642002F095F908B1012070BD02
:101CD000284602F013F9642002F08CF908B10220C2
:101CE00070BD02F047F9A12002F008F9642002F06B
:101CF00081F908B1032070BD002002F095F8207032
:101D000002F05AF9002070BD70B504460E46154623
:101D100008E02046641CE4B23146FFF7CBFF761C96
:101D20006D1EADB2002DF4D1002070BD10B5502154
:101D30000448FEF74FFB5022BDE810400149002047
:101D4000FFF7E2BF1800002070B50024074DE00641
:101D500005EBC401000E00F00BF8052000F035FB88
:101D6000641CE4B20A2CF2D370BD000018000020FD
:101D700070B504460D4602F0FDF8A02002F0BEF852
:101D8000642002F037F908B1012070BD204602F04E
:101D9000B5F8642002F02EF908B1022070BD0024CD
:101DA000285D02F0ABF8642002F024F910B1E41CC5
:101DB000E0B270BD641CE4B2082CF1D302F0FCF870
:101DC000002070BD10B5142000F054F8B8B90F48C9
:101DD0000F49006888420CD10EA002F051FF104854
:101DE000016841F0010101600E490020C1F80008BE
:101DF00005E00DA002F044FF0E4802F02DF90EA000
:101E000002F03EFFBDE8104000F058BA1800002074
:101E10002211BBAA4F5441B8FCD0C20D0A000000E9
:101E20000400002068000020CCF8D7AA41B7D6C72C
:101E3000F80D0A0000500008BDF8C8EB426F6F743F
:101E40004C6F61646572C3FCC1EED0D00D0A000016
:101E500010B54FF4C061054800F0DCFEBDE810404D
:101E60004FF4C051024800F0D5BE00000008014008
:101E70000010014070B50446642004FB00F109A085
:101E800002F0FEFE134D05E0642000F09EFA287873
:101E9000772804D0641EE4B2F6D2002070BD012081
:101EA00070BD00002564206D73C4DACAE4C8EBD0AD
:101EB000A1D0B4D7D6C4B82077202CBDF8C8EB4247
:101EC0006F6F744C6F61646572C3FCC1EED0D00D4E
:101ED0000A000000D00800202DE9F05F04460E46FD
:101EE000DFF8F882BE4F4FF00009D8F80000002854
:101EF0000AD0DFF8F0A241077ED5DFF8ECB24FF050
:101F0000FF39852E7AD0CAE0012E02D120783128FF
:101F100002D0012E09D00BE0B4A002F0B1FEBDE862
:101F2000F05F76210A2000F072BA2078322802D0C1
:101F3000012E13D015E0B0A002F0A2FE76210A20F7
:101F400000F065FAD8F8000040F00600C8F800007C
:101F5000C7F80498C7F80898BDE8F09F20783328A0
:101F600002D0012E0AD00CE0A9A002F089FED8F818
:101F7000000040F00800C8F80000EDE720783428A1
:101F800002D0012E0ED010E0A5A002F079FEFFF7DE
:101F9000CDFE9449A6A0303102F072FEBDE8F05F9C
:101FA00000F08CB92078352802D0012E0AD00CE040
:101FB000A3A002F065FED8F8000040F01000C8F8B9
:101FC0000000C9E7207836280CD0012EC4D1207833
:101FD0003728C1D1A0A002F053FE0A2000F0F5F985
:101FE00002F048FD9EA002F04BFED8F8000040F041
:101FF0004000C8F80000AFE7A1E0FFE72178012921
:102000004DD120F00200C8F800008021E01C02F051
:10201000EFFCC7F80C0894F8841094F8832001EBC7
:102020000221814238D1D7F80808401CC7F80808B7
:10203000401E00F00F0007EBC0108022E11CFEF7ED
:1020400084F9D7F80808010722D198F8001089060A
:1020500015D5002597F80008D7F8082801026FF079
:10206000010000EBD20001EB8000284481B207EBB5
:10207000052002F041FC6D1C082DEBDB08E009EBAC
:1020800010100BEBC0204FF40062554900F034FAF9
:1020900079A002F0F5FD02E078A002F0F1FD012E3A
:1020A0008FD1207804288CD173A002F0E9FDD7F8F5
:1020B000080801071AD098F8001089060DD597F87E
:1020C000001809EBD000090201EB8000284481B21E
:1020D00007EB052002F010FC08E001074A0D09EBB0
:1020E00010100BEBC0203E4900F006FAD8F80000B3
:1020F00020F00400C8F8000081061BD520F0200065
:10210000C8F8000007F500673968B8680AEB810174
:10211000C0014860FFF718FE642000F056F93868E7
:102120000AEB8000416856A002F0AAFDBDE8F05F0E
:1021300000F0C4B8642000F048F902F09BFCC1062E
:102140002ED5012E04D0BDE8F05F4FA002F098BD5F
:102150002178A1F13102082A1DD83039C7F80018BA
:1021600040F02600C8F80000C7F80498C7F808989F
:102170000AEB8100C0F80490C8B202F073FB464835
:10218000D7F8001802F07CFDD8F8000020F010000D
:10219000C8F80000E0E6BDE8F05F40A002F070BDC6
:1021A0004106F7D5012E04D0BDE8F05F36A002F05D
:1021B00067BD2178A1F13102082A09D83039C7F862
:1021C000001840F0010020F04000C8F80000C3E60D
:1021D000BDE8F05F36A002F053BD0000040000200F
:1021E000680000201800002000500008B2C1B3FDB4
:1021F00041C7F80D0A000000B4AEBFDA494150CF24
:10220000C2D4D841C7F8B3CCD0F20D0A0000000008
:10221000C9E8D6C34F5441B0E6B1BEBAC50D0A00F5
:10222000B2E9D1AF4F5441B0E6B1BEBAC50D0A0014
:10223000B0E6B1BEBAC5CEAA3A2025730D0A000099
:10224000CFF2CDE2B2BF466C617368CFC2D4D8B3CF
:10225000CCD0F20D0A000000D6D8C6F40D0A00005A
:10226000CAB9D3C3CDE2B2BF466C617368C4DAB3F6
:10227000CCD0F20D0A00000006000000150000009E
:1022800025780D0A00000000CAFDBEDDB3A4B6C863
:10229000B4EDCEF30D0A0000684E0008BFE9CAE4B1
:1022A000C8EBB1E0BAC5B4EDCEF30D0A00000000F2
:1022B000B1E0BAC5B4EDCEF30D0A000010B50DA023
:1022C00002F0DEFC0CA002F0DBFC0FA002F0D8FC58
:1022D00013A002F0D5FC17A002F0D2FC1AA002F065
:1022E000CFFC20A002F0CCFCBDE8104024A002F0FE
:1022F000C7BC00000D0A00005B315DB2C1B3FD41F7
:10230000C7F80D0A000000005B325DB4AEBFDA49C9
:102310004150CFC2D4D841C7F8B3CCD0F20D0A0097
:102320005B335DC9E8D6C34F5441B0E6B1BEBAC510
:102330000D0A00005B345DB2E9D1AF4F5441B0E605
:10234000B1BEBAC50D0A00005B355DCFF2CDE2B279
:10235000BF466C617368CFC2D4D8B3CCD0F20D0A3B
:10236000000000005B365DCAB9D3C3CDE2B2BF4600
:102370006C617368C4DAB3CCD0F20D0A00000000BF
:102380005B375DD6D8C6F40D0A000000FEE70000FA
:10239000014800F0BDB900007819002030B590F870
:1023A00040500124AC40C56B6C60046863604368B6
:1023B000102B04D0036899600068C26030BD0368C8
:1023C0009A600068C16030BD704700B502464FF4A6
:1023D0007A7302E0184600F004F8521E92B2F9D265
:1023E00000BD00EBC000C1004FF0E02041610021C2
:1023F0008161016941F0010101610169C903FCD5F5
:10240000016921F001010161704772B6FEE700B574
:1024100085B0002200924FF0006202EBC0200290D3
:10242000039100F0E3FB04A9684600F03BFB00F0D9
:102430008DFB05B000BD000006490020C8610648BC
:10244000016941F004010161016941F0400101614C
:1024500070470000C019002000200240064A0021F9
:10246000D16106490A6942F002020A6148610869BD
:1024700040F0400008617047C01900200020024071
:10248000044B0022DA61044A136943F0010313612B
:1024900001807047C019002000200240002014492C
:1024A000CA68D306134A04D5D06940F00200D0614F
:1024B0001020CB685B0705D5D36943F00103D361D6
:1024C00040F00400CB69DB0707D0D36943F0040375
:1024D000D361CA6922F00102CA61A0F58072013A93
:1024E00001D0C8607047C86920F00100C86170471A
:1024F00000200240C019002070B506460C46154663
:1025000000F074FB08E0002331460220226800F04E
:1025100027FB2D1F361D241D002DF4D1BDE8704072
:1025200000F014BB70B5044600F010FD0546114ED6
:1025300009E0601C07D024B100F008FD401BA04258
:1025400001D9032070BDF068C007F2D1F0688006A1
:1025500001D52020F060F068C00605D4F069C007FE
:1025600002D1F068400703D5FFF798FF012070BD46
:10257000002070BD0020024010B590F8211000220C
:10258000022905D00421816380F82020012010BD9C
:1025900001680B6823F00E030B6001680B6823F0E1
:1025A00001030B6090F84030C46B012101FA03F382
:1025B000636080F8211080F82020104610BD0000D4
:1025C0002DE9F05F002590F82110022903D00421A5
:1025D0008163012595E001680A6822F00E020A6015
:1025E00001680A6822F001020A60474E464FB215A0
:1025F000DFF814C1DFF81081DFF80C91DFF808A1D3
:10260000DFF804B10168783F13011402ACF1640CE7
:10261000A8F15008A9F13C09AAF1280AABF1140B62
:102620004FF4801EB1422FD9B94201D1012227E0D7
:10263000614501D1102223E0414521D0494501D116
:102640001A461DE0514501D1224619E0594501D1F4
:10265000724615E02D4EB14201D1012210E02B4E01
:102660001436B14201D110220AE0284E2836B14278
:1026700006D0264A3C32914201D11A4600E0224659
:102680002249091F0A6033E0B94201D101222CE03E
:10269000614501D1102228E0414526D0494501D1AC
:1026A0001A4622E0514501D122461EE0594501D18A
:1026B00072461AE0B14202D14FF0807215E0134E1B
:1026C000B14201D1012210E0104E1436B14201D1C5
:1026D00010220AE00D4E2836B14206D00B4A3C3299
:1026E000914201D11A4600E02246074980394A60EA
:1026F000012180F82110002180F82010416B01B1E8
:1027000088472846BDE8F09F800002400804024048
:102710002DE9F05FC16B0A6801680B68046C4FF02B
:10272000040E0EFA04FE9A4D9A4E9B4FDFF86CC2CF
:10273000DFF86C82DFF86C92DFF86CA2DFF86CB225
:102740001EEA020F7BD05FEA437E78D50A689206C4
:1027500003D40A6822F004020A60DFF848E24FF46A
:10276000806201680EF1140E1301140271452DD917
:10277000A94201D1042225E0B14201D1402221E049
:10278000B9421FD0614501D11A461BE0414501D134
:10279000224617E0494502D14FF4800212E051452C
:1027A00001D104220EE0594501D140220AE07F4DBB
:1027B0001435A94206D07D4A2832914201D11A46E9
:1027C00000E022467849091F0A6032E0A94201D19F
:1027D00004222BE0B14201D1402227E0B94225D0AA
:1027E000614501D11A4621E0414501D122461DE053
:1027F000494502D14FF4800218E0714502D14FF0F3
:10280000806213E0514501D104220FE0594501D106
:1028100040220BE0654D1435A94207D0634A2832A7
:10282000914202D11A4601E009E02246584908398E
:102830004A60C16A00296FD0BDE8F05F08474FF0D9
:10284000020E0EFA04FE1EEA020F74D05FEA837EC7
:102850007FD50A68920606D40A6822F00A020A6046
:10286000012180F82110DFF83CE14FF4007201688B
:102870000EF1140E1301140271452DD9A94201D194
:10288000022225E0B14201D1202221E0B9421FD02D
:10289000614501D11A461BE0414501D1224617E0AE
:1028A000494502D14FF4001212E0514501D10222F4
:1028B0000EE0594501D120220AE03C4D1435A942D1
:1028C00006D03A4A2832914201D11A4600E0224607
:1028D0003549091F0A6033E0A94201D102222CE0E8
:1028E000B14201D1202228E0B94226D0614501D170
:1028F0001A4622E0414501D122461EE0494502D157
:102900004FF4001219E0714502D14FF0007214E04B
:10291000514502D1022210E038E0594501D1202270
:102920000BE0224D1435A94207D0204A28329142AB
:1029300002D11A4601E00CE02246154908394A60E6
:10294000002180F82010816A00291FD0BDE8F05FC7
:1029500008470825A540154218D01A0716D50A6859
:1029600022F00E020A6090F84020C36B012101FAA8
:1029700002F25A60816380F82110002180F8201053
:10298000016B002902D0BDE8F05F0847BDE8F09F69
:10299000080002401C000240300002404400024097
:1029A000580002406C000240080402401C0402402F
:1029B00030B500280DD01B4B0168142299420AD271
:1029C000194B0B44B3FBF2F292000264174AC26344
:1029D0000BE0012030BD134B5B420B44B3FBF2F222
:1029E000920002640F4A083AC2630222001D427735
:1029F0000A6843F6F0739A43D0E900342343D0E9E0
:102A000002452C43234304692343446923438469D7
:102A1000234313430B600021416301224277017776
:102A2000002030BD08040240F8FFFDBF0000024056
:102A300070B50446002594F8200001280CD0012030
:102A400084F8200094F821600020012E06D084F83C
:102A500020000225284670BD022070BD022684F8A1
:102A60002160A0632068066826F001060660204603
:102A7000FFF794FCE06A28B12068016841F00E017C
:102A8000016009E02068016821F00401016020680C
:102A9000016841F00A0101602068016841F001010C
:102AA0000160D7E72DE9F04705460F464FF0010AD0
:102AB000DFF8908098F8180001280DD0012088F8E0
:102AC00018002868204E4CF25039022807D048469A
:102AD000FFF728FD98B12FE00220BDE8F0874846B7
:102AE000FFF720FDF8B90120FFF7A6FC4846FFF7E5
:102AF00019FD8246306920F0040030611CE04FF07F
:102B0000FF303860AC6811E02046FFF7A7FC48466C
:102B1000FFF708FD8246306920F0020030615FEA6D
:102B20000A0001D03C6007E004F50064D5E9020129
:102B300000EBC120A042E7D8002088F818005046DA
:102B4000CBE70000C01900200020024003480169C3
:102B500041F0800101610020704700000020024028
:102B60002DE9F05F0746884615461E460024DFF82B
:102B7000749099F81800012809D0012089F81800EC
:102B80004CF2503B5846FFF7CDFC18B126E002202E
:102B9000BDE8F09F012F05D0022F05D00427DFF8F4
:102BA00048A019E00127FAE70227F8E722012846A2
:102BB0003146FDF785FB81B208EB4400FFF760FC6E
:102BC0005846FFF7AFFCDAF8101021F00101CAF8FF
:102BD000101018B9641CE4B2BC42E7D3002189F894
:102BE0001810D5E7C0190020002002400020064937
:102BF0000A69120607D5054A4A60054A4A6009690A
:102C0000090600D5012070470020024023016745D6
:102C1000AB89EFCD2DE9F0430022DFF8E0804FF0E3
:102C20000F0C66E0012393400B40EBB322F003044A
:102C300004EB0805AC689607370F0CFA07F606EAAE
:102C400004092F4CA04201D1002419E02D4CA042D0
:102C500001D1012414E02C4CA04201D102240FE048
:102C60002A4CA04201D103240AE0294CA04201D100
:102C7000042405E0274CA04201D1052400E00624ED
:102C8000BC404C4515D1244C27689F432760241D28
:102C900027689F432760204C0C3427689F43276098
:102CA000241F27689F4300E021E02760AC68B443FD
:102CB000AC60FF2B01D8044601E000F1040402D807
:102CC0004FEA820503E0A2F108054FEA8505266870
:102CD0000CFA05F726EA07064FF0040707FA05F78E
:102CE00046EA07062660C46824EA0304C46002F1C9
:102CF000010231FA02F395D1BDE8F08300000140F2
:102D000000080140000C0140001001400014014087
:102D100000180140001C0140000401402DE9F84F5B
:102D200000240023DFF8E0914FF00F08A9F1040B15
:102D300009F1040AABF1040EDFE00127A7403A4095
:102D4000BA4275D1DFF8C4C14D68A5EB0C066545E4
:102D50002BD00DDC032D34D005DC35B3012D19D07B
:102D6000022D2FD11BE0112D16D0122D2AD119E0E2
:102D7000B6F5881F19D006DCB6F5803F15D0B6F53C
:102D8000801F1FD111E0B6F5001F0ED0B6F5041F4D
:102D900018D10AE0CB6815E0CB681B1D12E0CB68A8
:102DA00008330FE0CB680C330CE08B6823B1012BA8
:102DB00004D00823476105E0042303E008230761EA
:102DC00000E00023FF2A01D8054601E000F10405D8
:102DD00002D84FEA840603E0A4F108064FEA86060B
:102DE0002F6808FA06FC27EA0C0703FA06F647EAFA
:102DF00006072F604D68ED007ED5454DAE6946F063
:102E00000106AE61AD6905F001050095414D24F064
:102E100003067719BE68A5072D0F08FA05FC26EAF8
:102E20000C06DFF8F4C0604503D14FF0000C25E03C
:102E300062E0DFF8E8C0604502D14FF0010C1DE010
:102E4000DFF8DCC0604502D14FF0020C16E0DFF87D
:102E5000D4C0604502D14FF0030C0FE0DFF8C8C0CA
:102E6000604502D14FF0040C08E0DFF8C0C06045B7
:102E700002D14FF0050C01E04FF0060C0CFA05FCF6
:102E80004CEA060CC7F808C04D68ED0205D5D9F824
:102E900000501543C9F8005004E0D9F8005095439C
:102EA000C9F800504D68AD0205D5DAF80050154359
:102EB000CAF8005004E0DAF800509543CAF8005010
:102EC0004D68AD0305D5DBF800501543CBF8005035
:102ED00004E0DBF800509543CBF800504D68ED035B
:102EE00005D5DEF800501543CEF8005004E0DEF8BA
:102EF00000509543CEF80050641C0A6832FA04F57D
:102F00007FF41BAFBDE8F88F0804014000001110EA
:102F1000001002400000014000080140000C014088
:102F2000001001400014014000180140001C014045
:102F30008068084201D00120704700207047002AB5
:102F400001D0016170470904016170470148806840
:102F50007047000008000020024881680278114490
:102F6000816070470800002010B50748016841F0F3
:102F700010010160032000F077F80F2000F006F840
:102F800000F026F8002010BD0020024070B5044675
:102F90000D4D4FF47A712878B1FBF0F00B490968B8
:102FA000B1FBF0F000F0B7FC08B1012070BD102CAF
:102FB00007D200222146501E00F036F86C60002037
:102FC00070BD012070BD000008000020140000202A
:102FD00008B50C48816941F001018161816901F006
:102FE00001010091C16941F08051C161C06900F0E7
:102FF000805000900449486820F0E06040F0007084
:10300000486008BD0010024000000140002809DBB4
:1030100000F01F02012191404009800000F1E020F2
:10302000C0F8001170470000F0B40D460D4B1B684E
:10303000C3F30223C3F10704042C00D90424191D8F
:10304000072901D2002300E0DB1E012606FA04F165
:10305000491E294099409E40761E16403143F0BCDF
:1030600001F0F7BC0CED00E000F00701054A106824
:103070004FF6FF03184040EA01200349084310605F
:10308000704700000CED00E00000FA052DE9F04764
:1030900004460D46002C17D0DFF83081D8F8000028
:1030A00000F00700A84211D2D8F8000020F0070075
:1030B0002843C8F80000D8F8000000F00700A84234
:1030C00004D00120BDE8F0870120FBE72068404ED6
:1030D000810712D5400703D5706840F4E060706046
:1030E0002078000703D5706840F460507060706805
:1030F000A16820F0F000084370602078C0072CD051
:103100006068012806D0022809D0316889070BD4ED
:103110000120D7E73168890306D40120D2E731685E
:10312000890101D40120CDE7716821F00301014339
:103130007160FFF70BFF074641F2883906E0FFF7A1
:1031400005FFC01B484501D90320BBE770686168D3
:1031500000F00C00B0EB810FF1D1D8F8000000F0C6
:103160000700A8420ED9D8F8000020F00700284335
:10317000C8F80000D8F8000000F00700A84201D00D
:1031800001209FE72078400705D57068E16820F4AA
:10319000E060084370602078000706D570682169F8
:1031A00020F4605040EAC100706000F03FF87168A0
:1031B000084AC1F30311515CC84007490860074839
:1031C0000068FFF7E3FE00207CE7000000200240DB
:1031D00000100240524D0008140000200C00002096
:1031E00001480068704700001400002000B5FFF798
:1031F000F7FF04494968044AC1F30221515CC84001
:1032000000BD000000100240624D000800B5FFF74D
:10321000E7FF04494968044AC1F3C221515CC84030
:1032200000BD000000100240624D00080E4B5968BE
:103230000E4801F00C02042A11D0082A0FD10C48C4
:10324000C1F38342805CC9030AD55968084AC1F3B7
:103250004041921E515C054A5043B0FBF1F070476B
:1032600004494843704700000010024000127A00F1
:10327000424D000800093D002DE9F84F0446002C9E
:103280000ED02078D94DC0075ED06868C0F38100A9
:1032900001280BD06868C0F38100022803D00CE03D
:1032A0000120BDE8F88F6868C00306D52868800350
:1032B0004AD56068A8BB0120F3E76068B0F5803F9D
:1032C00011D0A8B1B0F5A02F1BD0286820F4803011
:1032D0002860286820F480202860606830B3FFF7F9
:1032E00035FE06461EE0286840F480302860F4E78A
:1032F000286820F480302860286820F48020286026
:10330000EBE7286840F480202860286840F480308B
:103310002860E2E7FFF71AFE801B642802D9032029
:10332000BFE711E028688003F4D50DE0FFF70EFE3B
:10333000064606E0FFF70AFE801B642801D9032039
:10334000AFE728688003F5D42078DFF8A4828007EF
:103350004FF0010A4FF0000945D5686810F00C0FD6
:1033600007D06868C0F38100022812D16868C003E2
:103370000FD42868800704D52069012801D00120D6
:103380008FE72868616920F0F80040EAC1002860F2
:1033900029E02069B8B1C8F800A0FFF7D7FD0646BC
:1033A00006E0FFF7D3FD801B022801D9032078E750
:1033B00028688007F5D52868616920F0F80040EAA0
:1033C000C10028600FE0C8F80090FFF7BFFD064677
:1033D00006E0FFF7BBFD801B022801D9032060E750
:1033E00028688007F5D42078000726D58148A16990
:1033F00099B1C0F800A0FFF7A9FD064606E0FFF767
:10340000A5FD801B022801D903204AE7686A8007CE
:10341000F5D5012000F0B4FE0FE0C0F80090FFF7F2
:1034200095FD064606E0FFF791FD801B022801D9B5
:10343000032036E7686A8007F5D42078400773D503
:103440000026E869C00008D4E86940F08050E861CF
:10345000E86900F0805000900126DFF89CB1DBF8AD
:103460000000C00514D4DBF8000040F48070CBF8F5
:103470000000FFF76BFD074606E0FFF767FDC01B86
:10348000642801D903200CE7DBF80000C005F4D55F
:10349000E068012812D0B0B105281DD0286A20F0BC
:1034A00001002862286A20F004002862E06841F2E6
:1034B000883B28B3FFF74AFD07461DE0286A40F025
:1034C00001002862F2E7286A20F001002862286AD9
:1034D00020F004002862E9E7286A40F0040028622E
:1034E000286A40F001002862E0E7FFF72FFDC01BCB
:1034F000584501D90320D4E6286A8007F5D50DE0A8
:10350000FFF724FD074606E0FFF720FDC01B5845E6
:1035100001D90320C5E6286A8007F5D4012E03D11E
:10352000E86920F08050E861E069A0B36968C1F300
:103530008101022946D0022805D0C8F86090FFF723
:1035400005FD04463AE0C8F86090FFF7FFFC064628
:1035500006E0FFF7FBFC801B022801D90320A0E650
:1035600028688001F5D4206AB0F5803F05D16868ED
:10357000A16820F4003008436860D4E908010843DA
:10358000696821F4741108436860C8F860A0FFF707
:10359000DDFC044607E026E0FFF7D8FC001B02280C
:1035A00001D903207DE628688001F5D51BE0FFF7EF
:1035B000CDFC001B022801D9032072E62868800197
:1035C000F5D410E001280CD06868226A00F480313C
:1035D000914204D1616A00F47010884203D0012046
:1035E0005FE601205DE600205BE60000001002407F
:1035F00000004242800442420070004070B5044620
:10360000002C09D0606A002540B125616561A56282
:1036100094F8510040B10CE0012070BD6068B0F535
:10362000827FF4D0E561F2E784F85050204600F044
:103630003FF8022084F851002068016821F0400121
:103640000160A088218900F4827001F404410843DC
:10365000A18901F400610843217C01F002010843C3
:10366000217D01F001010843218B01F40071084321
:10367000217F01F03801084394F8201001F0800107
:103680000843218D01F40051084321680860A069B6
:10369000042101EA1040216848602068C16921F4D2
:1036A0000061C1616565012084F85100002070BD92
:1036B00030B585B00024019402940394049400680A
:1036C0001449884223D11448816941F480518161B1
:1036D000816901F480510091816941F004018161A7
:1036E000806900F004000090A02001900220029068
:1036F00003200490094D01A92846FFF70FFB402144
:1037000001910294039401A92846FFF707FB05B035
:1037100030BD0000003001400010024000080140B0
:103720002DE9FF4F81B004460E9E8B469846012539
:10373000002794F8500001280ED0AA4684F850A023
:10374000FFF704FC814694F85100616801280DD010
:10375000B1F5827F08D103E0022005B0BDE8F08F0B
:10376000A16809B9042801D00227CFE0BBF1000FFE
:103770002DD0039858B35FEA080028D094F8510080
:10378000042802D0052084F85100002060650399C8
:10379000A163A4F83E80A4F83C80C4F830B0A4F83B
:1037A0003680A4F83480206460642068016849068B
:1037B00003D4016841F040010160E068B0F5006F9A
:1037C00007D06068F0B3B8F1010F49D07EE001275F
:1037D0009CE0606810B1B8F1010F3AD1206B21680C
:1037E0000088C860206B801C2063E08E401EE0864D
:1037F0002FE02068816889070DD5E18E59B1012D30
:1038000009D1216B0988C160206B801C2063E08E88
:10381000401EE086002520688168C9070BD0E18F33
:1038200049B1C068A16B0880A06B801CA063E08FC9
:10383000401EE0870125FFF789FBA0EB0900B0429D
:1038400007D300E00CE0701C03D0032784F851A0DC
:103850005CE0E08E0028CCD1E08F0028C9D13BE0AD
:10386000206B216800780873206B401C2063E08E79
:10387000401EE0862AE02068816889070DD5E18E28
:1038800059B1012D09D1216B09780173206B401CBE
:103890002063E08E401EE086002520688168C9070D
:1038A0000BD0E18F49B1C068A16B0870A06B401CC0
:1038B000A063E08F401EE0870125FFF747FBA0EBE8
:1038C0000900B04201D3701C10D17EB1E08E0028F7
:1038D000D1D1E08F0028CED14A463146204600F0B3
:1038E0008CFC38B10127202060650FE0032784F8A5
:1038F00051A00BE0A06818B92068C16880680090EA
:10390000606D08B1012701E084F851A0002084F81F
:103910005000384621E710B5401EB0F1807F01D33A
:10392000012010BD4FF0E02460610F21601701F00D
:1039300090F80020A06107202061002010BD704792
:1039400010B5044620684069C0F3C01094F84110D7
:10395000212911D180B12068143050E8001F21F0D6
:10396000800140E80012002AF5D1A06B08B1FEF7F3
:1039700003FE204600F0A9FD20684069C0F38010D6
:1039800094F84210222911D180B12068143050E8F7
:10399000001F21F0400140E80012002AF5D1E06B41
:1039A00008B1FEF7E9FD204600F05BFD002010BDE8
:1039B00070470000F8B5044622681068D168536962
:1039C00000F00F06002E08D1850606D58D0604D519
:1039D0002046BDE8F84000F086BD0025002E66D0E8
:1039E00003F0010601F49077374360D0C20705D099
:1039F000CA0503D5626C42F001026264420705D534
:103A0000DA0703D0626C42F002026264820705D5D5
:103A1000DA0703D0626C42F004026264020707D541
:103A200001F02002324303D0626C42F0080262646B
:103A3000626C002A31D0800604D5880602D5204663
:103A400000F051FD20684069C0F38010616C0907E7
:103A500000D438B3204600F004FD206840694006D9
:103A60001CD52068143050E8001F21F0400140E8C8
:103A70000012002AF5D1E06B60B159494163E06B57
:103A8000FEF79EFD002808D0E06B416B01B0BDE859
:103A9000F04008472046FFF78BFFF8BD2046FFF7B0
:103AA00087FFF8BD2046FFF783FF6564F8BD236BF1
:103AB000012B7DD1C3067BD5CB067ED5106850681F
:103AC000009050694FF0200340064FF0020643D5A6
:103AD000E16B0868406880B20028E7D0A28D82427E
:103AE000E4D9E085886920282DD020680C3050E882
:103AF000001F21F4807140E80012002AF5D12068EF
:103B0000143050E8001F21F0010140E80012002AA3
:103B1000F5D12068143050E8001F21F0400140E842
:103B20000012002AF5D184F84230256320680C3059
:103B300050E8001F21F0100140E80012002AF5D1E2
:103B4000E06BFEF719FD6663A08DE18D401A81B22E
:103B50002046FFF7F4FEF8BDA08DE18D401A81B23A
:103B6000E08D0028F7D00029F5D020680C3050E80F
:103B7000002F22F4907240E80027002FF5D1206832
:103B8000143050E8002F22F0010240E80027002FF7
:103B9000F5D184F84230256320680C3050E8002FBE
:103BA00022F0100240E80023002BF5D1666300E00C
:103BB00003E02046FFF7C3FEF8BD020606D50A065D
:103BC00004D52046BDE8F84000F098BD4006F3D586
:103BD0004806F1D52046BDE8F84000F069BC000079
:103BE0006543000870B50446002C04D094F84100E9
:103BF000002510B106E0012070BD84F84050204639
:103C000000F024F8242084F841002068C16821F4E1
:103C10000051C160204600F0CBFC2068016921F40E
:103C2000904101612068416921F02A0141612068C9
:103C3000C16841F40051C1606564202084F84100EE
:103C400084F842006563002070BD000070B586B046
:103C50000646002402940394049405942249306893
:103C600088423ED12149886940F480408861886952
:103C700000F480400190886940F004008861886900
:103C800000F00400019048150290022003900320E8
:103C90000590174D02A92846FFF740F82815029015
:103CA0000394049402A92846FFF738F8124D1148EE
:103CB00028606C60AC608020E8602C616C61AC6155
:103CC000EC612846FEF774FE08B1FEF79EFBF56333
:103CD0006E62002211462520FFF7A6F92520FFF786
:103CE00095F906B070BD0000003801400010024098
:103CF00000080140580002407819002090F8423036
:103D0000202B01D00220704721B11AB10023036398
:103D100000F0AABC01207047704770472DE9F843B6
:103D200004460E4615461F4694F84100202802D04E
:103D30000220BDE8F8837EB175B1002060642120C7
:103D400084F84100FFF702F98046A584E584A06865
:103D5000B0F5805F02D003E00120EAE7206910B1EE
:103D60003546002613E0002511E04346002280215D
:103D70002046009700F0F1FC08B10320D9E79DB17F
:103D8000216815F8010B4860E08C401EE084E08C4F
:103D90000028EAD14346002240212046009700F047
:103DA000DCFC40B10320C4E736F8020B2168C0F305
:103DB00008004860E8E7202084F841000020B8E7C8
:103DC0007047FEE72DE9F04186B01548816941F062
:103DD00010018161806900F0100001904FF480545F
:103DE00002941127039703260596DFF8388002A96D
:103DF0004046FEF793FF651002950397059602A9CA
:103E00004046FEF78BFF012221464046FFF797F818
:103E1000012229464046FFF792F806B0BDE8F0813E
:103E200000100240001001402DE9F04781460025B6
:103E30000724314F4FF400684FF0010A4FF48056C9
:103E4000002231463846FFF77AF80220FEF7C9FA19
:103E5000012231463846FFF772F841463846FFF7EF
:103E600067F818B10AFA04F02843C5B20220FEF739
:103E7000B8FA641E64B2002CE2DA002231463846F9
:103E8000FFF75DF80220FEF7ACFAB9F1000F1AD087
:103E9000002241463846FFF752F8012231463846A3
:103EA000FFF74DF80220FEF79CFA00223146384613
:103EB000FFF745F8012241463846FFF740F8022057
:103EC000FEF78FFA14E0012241463846FFF737F833
:103ED000012231463846FFF732F80220FEF781FA18
:103EE000002231463846FFF72AF80220FEF779FA19
:103EF0002846BDE8F0870000001001402DE9F0479A
:103F0000074607241A4E4FF001094FF4006A4FF498
:103F10008058002241463046FFF711F80220FEF794
:103F200060FA09FA04F53D4205D0012251463046B7
:103F3000FFF705F804E0002251463046FEF7FFFF88
:103F40000220FEF74EFA012241463046FEF7F7FF07
:103F5000641E002CDDDA002241463046FEF7EFFFFA
:103F600051463046BDE8F0470122FEF7E8BF0000A9
:103F70000010014070B501220E4D14032146284661
:103F8000FEF7DDFF0122D60231462846FEF7D7FFB5
:103F90000420FEF726FA002231462846FEF7CFFF1E
:103FA0000420FEF71EFA21462846BDE87040002294
:103FB000FEF7C5BF0010014070B50D4D4FF4006411
:103FC000002221462846FEF7BAFF0220FEF709FA32
:103FD000012211032846FEF7B2FF0520FEF701FA81
:103FE00021462846BDE870400122FEF7A8BF000028
:103FF0000010014070B50446164D4FF40066641E73
:1040000024B20220FEF7EDF931462846FEF790FF74
:1040100008B1002CF3DA002C01DA012070BD012276
:10402000140321462846FEF78AFF0220FEF7D9F93D
:1040300031462846FEF77CFF08B1022070BD002201
:1040400021462846FEF77BFF0220FEF7CAF9002032
:1040500070BD00000010014010B504462068A0F1BA
:104060000050B0F5404F0BD22068FCF705F96068AE
:10407000064C2060FDF7ECFE2068BDE810400047CC
:10408000BDE8104002A000F0FBBD000000000020D1
:10409000CCF8D7AA41B7D6C7F8CAA7B0DC0D0A003A
:1040A00008B50948416941F001014161406900F0EA
:1040B00001000090002211460F20FEF7B5FFBDE879
:1040C00008400F20FEF7A2BF0010024008B50948C3
:1040D000816941F020018161816901F02001009135
:1040E000816941F004018161806900F00400009061
:1040F00008BD00000010024010B510480E490160D4
:104100004FF48271416000218160C16001614161B1
:104110004FF4007282610822C261016241628162D1
:104120000A21C162FFF76AFA002803D0BDE81040F7
:10413000FEF76BB910BD0000003001407808002088
:1041400010B50C480A4901604FF46121416000211B
:104150008160C16001610C2242618161C161FFF730
:1041600041FD002803D0BDE81040FEF74EB910BD58
:104170000038014030190020FEE7FEE770470000DC
:1041800008B507494FF4FA520968B1FBF2F141430F
:10419000009100BF0098411E0091FAD208BD0000B6
:1041A0001400002070B506460D46002405E0FF20EF
:1041B00000F006F83055641CA4B2AC42F7D370BDD1
:1041C00001B582B04FF47A700090012301AA02A9D0
:1041D0000248FFF7A5FA9DF804000EBD78080020FC
:1041E00070B505460E46002404E0285DFFF7E8FFA1
:1041F000641CA4B2B442F8D370BD38B504460B4673
:10420000009200228021204600F00AF828B1606D5B
:1042100040F020006065032038BD002038BD00005C
:104220002DE9F84304460F4691461E46089DFEF7C9
:104230008DFE401B351AFEF789FE80462648006831
:10424000C0F3CB30684300903AE0701C38D0FEF7E2
:104250007DFEA0EB0800A84203D215B1009858B328
:104260002BE02068416821F0E00141606068B0F512
:10427000827F0BD1A068B0F5004F02D0B0F5806FFF
:1042800004D12068016821F040010160A06AB0F506
:10429000005F09D12068016821F4005101602068A5
:1042A000016841F400510160012050346070002029
:1042B00020700320BDE8F88300250098401E009080
:1042C0002068806837EA000004D000204845BCD14F
:1042D0000020EFE70120F9E7140000207047FEF707
:1042E0003BBE30B58FB0282105A8FCF773F8142128
:1042F0006846FCF76FF80121059108040690002438
:104300000794099102250C950D904FF4E0100E9042
:1043100005A8FEF7B1FF08B1FEF777F80F2000906F
:10432000019502944FF48060039004940221684642
:10433000FEF7ACFE002801D0FEF767F80FB030BDE5
:10434000704700000648011F4865886500F1480273
:10435000CA65A1F580520260002008807047000005
:10436000D418002010B5406A0021C185C184FFF730
:104370001FFB10BD70B5446A20684069C0F3C010CF
:1043800094F841100025212904D118B1E584204674
:1043900000F09BF820684069C0F3801094F8421048
:1043A000222904D118B1E585204600F05AF8606C46
:1043B00040F0100060642046FFF7FAFA70BD10B5B7
:1043C0000146486A096809684FF0000389062ED43F
:1043D000C38501680C3151E8002F22F4807241E856
:1043E0000024002CF5D10168143151E8002F22F08F
:1043F000010241E80024002CF5D10168143151E894
:10440000002F22F0400241E80024002CF5D12021A9
:1044100080F84210016B012909D101680C3151E883
:10442000002F22F0100241E80024002CF5D1436354
:10443000016B012902D0FFF76FFC10BD818DFFF7E2
:104440007EFA10BD10B5406A01214163016B01295C
:1044500002D0FFF762FC10BD818D4908FFF76FFAAB
:1044600010BD01680C3151E8002F22F4907241E830
:104470000023002BF5D10168143151E8002F22F000
:10448000010241E80023002BF5D1016B012909D17C
:1044900001680C3151E8002F22F0100241E800239E
:1044A000002BF5D1202180F84210002101637047D4
:1044B00010B50168CA6822F04002CA60202180F865
:1044C0004110FFF77DFC002010BD01680C3151E860
:1044D000002F22F0C00241E80023002BF5D120215B
:1044E00080F84110704708B590F84210222901D099
:1044F000022008BD82684FF480539A4201D10169BD
:1045000021B1816A9A421DD052B10BE0816A0268E2
:104510005268C2F308020A80816A891C816209E03C
:1045200002697AB10268526802F07F020A70816AF9
:10453000491C8162C18D491E0904090CC18505D041
:10454000002008BD026852680A70F0E70168CA6876
:1045500022F02002CA600168CA6822F48072CA6030
:1045600001684A6922F001024A61202180F8421064
:1045700000214163026B012A03D0FFF7CDFB00202D
:1045800008BD016301680C3151E8002F22F01002D0
:1045900041E80023002BF5D101680A68D20602D554
:1045A0000A6849680091818DFFF7C9F9E7E70000C3
:1045B00070B5044620680169E26821F44051114356
:1045C0000161A16820690143606901432068C268F4
:1045D00041F20C639A430A43C26020684169A269B0
:1045E00021F44071114341611E492068884202D183
:1045F000FEF70CFE01E0FEF7F9FD00EBC00101EB58
:104600000010616864228900B0FBF1F3B3FBF2F3A0
:104610006FF018067343B0FBF1F5B0FBF1F605EB54
:104620008305322303EB0515B5FBF2F5B6FBF2F675
:1046300005F0F00505EB0615B0FBF1F6B0FBF1F067
:10464000B0FBF2F06FF01801484306EB800003EB7B
:104650000010B0FBF2F0216800F00F0028448860E1
:1046600070BD00000038014037B582B004461346E3
:10467000039AA262A38500206064222184F842107C
:10468000E56B1B49A962E56B1A49E962E56B1A49BA
:104690002963E16B48632168E06B091DFEF7C8F9E7
:1046A0002068016840680190206948B120680C309A
:1046B00050E8001F41F4807140E80012002AF5D153
:1046C0002068143050E8001F41F0010140E800125A
:1046D000002AF5D12068143050E8001F41F0400155
:1046E00040E80012002AF5D105B0002030BD0000DE
:1046F000BF430008454400087543000890F8411086
:10470000212901D0022070478168B1F5805F01D175
:10471000016961B1016A4A1C02620268097851604C
:10472000C18C491E0904090CC1840AD013E0016A36
:1047300002680988C1F308015160016A891C01629D
:10474000EEE70168CA6822F08002CA600068C168AA
:1047500041F04001C160002070472DE9F04104465E
:104760000E4617469846069D25E0681C23D02DB1BD
:10477000FEF7ECFBA0EB0800A8421CD920680C3027
:1047800050E8001F21F4D07140E80012002AF5D152
:104790002068143050E8001F21F0010140E80012A9
:1047A000002AF5D1202040346070A07000202070D5
:1047B0000320BDE8F0812068006836EA000004D0DC
:1047C0000020B842D1D00020F3E70120F9E7000033
:1047D00038B51E4800680168C943C90630D40022B4
:1047E0000168406800901B49194C09682088496895
:1047F000401A00F2011080B2208017490844616D10
:104800004860606D08306065E16D884201D1201D0F
:10481000606520881149C0F50063FF2B03DD084463
:10482000616D086002E0606D016022800748FFF75B
:1048300087F8606D40F2011201680448FFF75EFAE4
:10484000BDE838400148FFF7B5B800003019002036
:10485000D018002078190020CF080020D0080020B0
:10486000FEE7000038B5D8218DF800108DF8010062
:1048700000208DF802008DF8030000F08BF800F0A6
:10488000A1F8094C002204212046FEF758FB042120
:104890006846FFF7A5FC012204212046FEF74FFBE6
:1048A00000F078F838BD00000008014010B586B06F
:1048B0000F48816941F004018161806900F00400C2
:1048C0000190042002900120039000200490032016
:1048D0000590084C02A92046FEF720FA0122042187
:1048E0002046FEF72CFBFFF707FC06B010BD0000CA
:1048F000001002400008014038B5044602228DF83D
:1049000000200A0A8DF801208DF8021000218DF890
:10491000031000F03FF800F055F80A4D0022042182
:104920002846FEF70CFB04216846FFF759FCA91541
:104930002046FFF755FC012204212846FEF7FFFA26
:1049400038BD000000080140F8B5054614460320B4
:104950008DF80000080C8DF80100080A8DF802009F
:104960008DF8031000F016F8094E0022042130469D
:10497000FEF7E5FA04216846FFF732FCA1B22846AB
:10498000FFF710FC012204213046FEF7D8FAF8BDEB
:104990000008014070B50A4D002204212846FEF7A8
:1049A000CEFA0520FFF70CFCFF20FFF709FC0446B8
:1049B000012204212846FEF7C2FAE007ECD170BDBF
:1049C0000008014010B5FFF7E5FF084C0022042164
:1049D0002046FEF7B4FA0620FFF7F2FB204601223C
:1049E000BDE810400421FEF7AABA0000000801400B
:1049F00070B50346002041F221044FF6FF7510E028
:104A00001A7880EA02200022060403D584EA4000D6
:104A100080B201E005EA4000521CD2B2082AF3D36A
:104A20005B1C491E89B2EBD270BD490050EAC1201F
:104A300018BF04204A0D18BF40F0010040F2FF7279
:104A4000B2EB515F08BF40F00200012808BF05200B
:104A500070470907090E002804DB00F1E02080F808
:104A60000014704700F00F0000F1E02080F8141DE2
:104A700070470000BFF34F8F05480168054A01F4F5
:104A8000E06111430160BFF34F8F00BFFDE70000FD
:104A90000CED00E00400FA0530380A2801D20120AC
:104AA0007047002070470000FEF75EFAFFF719FC20
:104AB000FFF70CFBFFF7F4FAFFF742FBFFF71CFBD5
:104AC000FFF7F4FE40F2011258495948FFF716F972
:104AD00057480068C16841F01001C160FFF732FC1F
:104AE000FFF770F9FDF76EF9534D524CDFF84C812A
:104AF0000027A5F150060A20FDF767FCD4E9151040
:104B000088420FD081880068091A491C89B2FDF7D4
:104B1000E3F9A06D0830A065E16D884202D14548F7
:104B2000001DA06598F8000080070DD5D5F8040891
:104B3000642804D342A000F0A3F8C5F80478D5F89F
:104B40000408401CC5F8040898F80000C007D2D03B
:104B5000FDF7ECF8D5F8000806EB80000079800737
:104B600009D038A000F08CF8D8F8000020F001003F
:104B7000C8F80000BFE7002476210A20FDF747FCB3
:104B8000D5F8000806EB8000416831A000F078F805
:104B9000DFF8D0804FF400690EE0E10201EB004144
:104BA0004A462548FFF7D0FE08EBC4204A46224972
:104BB000FDF7A2FC641CE4B2D5F8000806EB800106
:104BC0004968B4EBD12FE8D3D5F8001806EB810182
:104BD0004A68510513D0E10201EB0041C2F30A0219
:104BE0001548FFF7B1FED5F80008134906EB800021
:104BF0008088C0F30A0208EBC420FDF77DFCD5F8DD
:104C0000000810B93760FDF79FF817A000F038F8DA
:104C1000BFF34F8F18480168184A01F4E06111434F
:104C20000160BFF34F8F00BFFDE70000D0080020F8
:104C300030190020D0180020680000200400002057
:104C400043000000B3A4B6C8B4EDCEF30D0A0000D3
:104C50004F54415F46696C654C656E3A2025780D6E
:104C60000A0000000050000841C7F8B8FCD0C2CDCF
:104C7000EAB1CF0D0A0000000CED00E00400FA05D7
:104C80000FB42DE9F84309AA13480899FBF72CFB48
:104C9000002000901048FBF739FB85B200240F4E2E
:104CA0000D4F4FF0FF380CE030680168C94309062A
:104CB000FBD43919434601220848FFF72FF8641C3A
:104CC000A4B2AC42F0D330680168C9434906FBD4B2
:104CD000BDE8F8035DF814FBD01000203019002067
:104CE00010B500290AD00878002807D00548784474
:104CF000FCF7DEFB002801D0002010BD02487844FC
:104D000010BD0000DE010000D601000010B5002932
:104D10000AD00878002807D005487844FCF7C8FB7B
:104D2000002801D0002010BD0248784410BD0000CA
:104D3000CE010000C6010000FBF7CFBFFCF704B9AD
:104D4000010202030405060708090A0B0C0D0E0FE9
:104D5000101000000000000000000102030406071C
:104D60000809000000000102030400000000000028
:104D700000000000303132333435363738394142A3
:104D800043444546403058003031323334353637AD
:104D90003839616263646566403078000400000859
:104DA000000000000000000200010000103031325D
:104DB000333435363738396162636465667870003C
:104DC0003031323334353637383941424344454641
:104DD0005850000002400000000000A00000000049
:104DE00005400000000000C8000000000C4000006A
:104DF0000000409C00000000194000000020BCBEE4
:104E00000000000034400000BFC91B8E00000004F9
:104E1000B5400000504BCFD06607E2CF0100000044
:104E20006C4100003E8251AADFEEA7340100000071
:104E3000D9420000DCB5A0E23A301F97FFFFFFFF28
:104E4000B4450000FD25A0C8E9A3C14FFFFFFFFF47
:104E5000FF3F00000000008000000000FF3F000056
:104E60000000008000000000CDA8B9FD586D6F64FF
:104E7000656DD0ADD2E9A3ACCFF2CDE2B2BF466C46
:104E8000617368B5DA2564B8F6BFE9CFC2D4D8B388
:104E9000CCD0F2A3ACC7EBCAB9D3C362696EB8F188
:104EA000CABDCEC4BCFE0D0A00000000F84F0008C9
:104EB00000000020180000006C01000810500008DD
:104EC0001800002028200000880100081C000000B5
:104ED00043000000F8FFFFFF0C0000000E00000080
:104EE0000F0000002E000000100100004300000031
:104EF000F8FFFFFF004040404040404040404141FB
:104F0000414141404040404040404040404040409E
:104F10004040404040050202020202020202020238
:104F20000202020202202020202020202020200235
:104F300002020202020290909090909010101010C5
:104F40001010101010101010101010101010101061
:104F500002020202020288888888888808080808F5
:104F600008080808080808080808080808080808C1
:104F700002020202400000000000000000000000E9
:104F80000000000000000000000000000000000021
:104F90000000000000000000000000000000000011
:104FA0000000000000000000000000000000000001
:104FB00000000000000000000000000000000000F1
:104FC00000000000000000000000000000000000E1
:104FD00000000000000000000000000000000000D1
:104FE00000000000000000000000000000000000C1
:104FF00000000000000000000000000000000000B1
:105000000100000010000000000000000024F40077
:0400000508000131BD
:00000001FF
